{"abi":[{"inputs":[{"internalType":"uint256","name":"minimum","type":"uint256"}],"name":"createCampaign","outputs":[],"stateMutability":"nonpayable","type":"function"},{"inputs":[{"internalType":"uint256","name":"","type":"uint256"}],"name":"deployedCampaigns","outputs":[{"internalType":"contract Campaign","name":"","type":"address"}],"stateMutability":"view","type":"function"},{"inputs":[],"name":"getDeployedCampaigns","outputs":[{"internalType":"contract Campaign[]","name":"","type":"address[]"}],"stateMutability":"view","type":"function"}],"devdoc":{"kind":"dev","methods":{},"version":1},"evm":{"assembly":"    /* \"Campaign.sol\":65:434  contract CampaignFactory {... */\n  mstore(0x40, 0x80)\n  callvalue\n  dup1\n  iszero\n  tag_1\n  jumpi\n  0x00\n  dup1\n  revert\ntag_1:\n  pop\n  dataSize(sub_0)\n  dup1\n  dataOffset(sub_0)\n  0x00\n  codecopy\n  0x00\n  return\nstop\n\nsub_0: assembly {\n        /* \"Campaign.sol\":65:434  contract CampaignFactory {... */\n      mstore(0x40, 0x80)\n      callvalue\n      dup1\n      iszero\n      tag_1\n      jumpi\n      0x00\n      dup1\n      revert\n    tag_1:\n      pop\n      jumpi(tag_2, lt(calldatasize, 0x04))\n      shr(0xe0, calldataload(0x00))\n      dup1\n      0x339d50a5\n      eq\n      tag_3\n      jumpi\n      dup1\n      0x4acb9d4f\n      eq\n      tag_4\n      jumpi\n      dup1\n      0xa3303a75\n      eq\n      tag_5\n      jumpi\n    tag_2:\n      0x00\n      dup1\n      revert\n        /* \"Campaign.sol\":97:132  Campaign[] public deployedCampaigns */\n    tag_3:\n      tag_6\n      0x04\n      dup1\n      calldatasize\n      sub\n      dup2\n      add\n      swap1\n      tag_7\n      swap2\n      swap1\n      tag_8\n      jump\t// in\n    tag_7:\n      tag_9\n      jump\t// in\n    tag_6:\n      mload(0x40)\n      tag_10\n      swap2\n      swap1\n      tag_11\n      jump\t// in\n    tag_10:\n      mload(0x40)\n      dup1\n      swap2\n      sub\n      swap1\n      return\n        /* \"Campaign.sol\":315:430  function getDeployedCampaigns() public view returns (Campaign[] memory) {... */\n    tag_4:\n      tag_12\n      tag_13\n      jump\t// in\n    tag_12:\n      mload(0x40)\n      tag_14\n      swap2\n      swap1\n      tag_15\n      jump\t// in\n    tag_14:\n      mload(0x40)\n      dup1\n      swap2\n      sub\n      swap1\n      return\n        /* \"Campaign.sol\":141:307  function createCampaign(uint minimum) public {... */\n    tag_5:\n      tag_16\n      0x04\n      dup1\n      calldatasize\n      sub\n      dup2\n      add\n      swap1\n      tag_17\n      swap2\n      swap1\n      tag_8\n      jump\t// in\n    tag_17:\n      tag_18\n      jump\t// in\n    tag_16:\n      stop\n        /* \"Campaign.sol\":97:132  Campaign[] public deployedCampaigns */\n    tag_9:\n      0x00\n      dup2\n      dup2\n      sload\n      dup2\n      lt\n      tag_19\n      jumpi\n      0x00\n      dup1\n      revert\n    tag_19:\n      swap1\n      0x00\n      mstore\n      keccak256(0x00, 0x20)\n      add\n      0x00\n      swap2\n      pop\n      sload\n      swap1\n      0x0100\n      exp\n      swap1\n      div\n      0xffffffffffffffffffffffffffffffffffffffff\n      and\n      dup2\n      jump\t// out\n        /* \"Campaign.sol\":315:430  function getDeployedCampaigns() public view returns (Campaign[] memory) {... */\n    tag_13:\n        /* \"Campaign.sol\":368:385  Campaign[] memory */\n      0x60\n        /* \"Campaign.sol\":405:422  deployedCampaigns */\n      0x00\n        /* \"Campaign.sol\":398:422  return deployedCampaigns */\n      dup1\n      sload\n      dup1\n      0x20\n      mul\n      0x20\n      add\n      mload(0x40)\n      swap1\n      dup2\n      add\n      0x40\n      mstore\n      dup1\n      swap3\n      swap2\n      swap1\n      dup2\n      dup2\n      mstore\n      0x20\n      add\n      dup3\n      dup1\n      sload\n      dup1\n      iszero\n      tag_22\n      jumpi\n      0x20\n      mul\n      dup3\n      add\n      swap2\n      swap1\n      0x00\n      mstore\n      keccak256(0x00, 0x20)\n      swap1\n    tag_23:\n      dup2\n      0x00\n      swap1\n      sload\n      swap1\n      0x0100\n      exp\n      swap1\n      div\n      0xffffffffffffffffffffffffffffffffffffffff\n      and\n      0xffffffffffffffffffffffffffffffffffffffff\n      and\n      dup2\n      mstore\n      0x20\n      add\n      swap1\n      0x01\n      add\n      swap1\n      dup1\n      dup4\n      gt\n      tag_23\n      jumpi\n    tag_22:\n      pop\n      pop\n      pop\n      pop\n      pop\n      swap1\n      pop\n        /* \"Campaign.sol\":315:430  function getDeployedCampaigns() public view returns (Campaign[] memory) {... */\n      swap1\n      jump\t// out\n        /* \"Campaign.sol\":141:307  function createCampaign(uint minimum) public {... */\n    tag_18:\n        /* \"Campaign.sol\":197:217  Campaign newCampaign */\n      0x00\n        /* \"Campaign.sol\":233:240  minimum */\n      dup2\n        /* \"Campaign.sol\":242:252  msg.sender */\n      caller\n        /* \"Campaign.sol\":220:253  new Campaign(minimum, msg.sender) */\n      mload(0x40)\n      tag_25\n      swap1\n      tag_26\n      jump\t// in\n    tag_25:\n      tag_27\n      swap3\n      swap2\n      swap1\n      tag_28\n      jump\t// in\n    tag_27:\n      mload(0x40)\n      dup1\n      swap2\n      sub\n      swap1\n      0x00\n      create\n      dup1\n      iszero\n      dup1\n      iszero\n      tag_29\n      jumpi\n      returndatasize\n      0x00\n      dup1\n      returndatacopy\n      revert(0x00, returndatasize)\n    tag_29:\n      pop\n        /* \"Campaign.sol\":197:253  Campaign newCampaign = new Campaign(minimum, msg.sender) */\n      swap1\n      pop\n        /* \"Campaign.sol\":264:281  deployedCampaigns */\n      0x00\n        /* \"Campaign.sol\":287:298  newCampaign */\n      dup2\n        /* \"Campaign.sol\":264:299  deployedCampaigns.push(newCampaign) */\n      swap1\n      dup1\n      0x01\n      dup2\n      sload\n      add\n      dup1\n      dup3\n      sstore\n      dup1\n      swap2\n      pop\n      pop\n      0x01\n      swap1\n      sub\n      swap1\n      0x00\n      mstore\n      keccak256(0x00, 0x20)\n      add\n      0x00\n      swap1\n      swap2\n      swap1\n      swap2\n      swap1\n      swap2\n      0x0100\n      exp\n      dup2\n      sload\n      dup2\n      0xffffffffffffffffffffffffffffffffffffffff\n      mul\n      not\n      and\n      swap1\n      dup4\n      0xffffffffffffffffffffffffffffffffffffffff\n      and\n      mul\n      or\n      swap1\n      sstore\n      pop\n        /* \"Campaign.sol\":186:307  {... */\n      pop\n        /* \"Campaign.sol\":141:307  function createCampaign(uint minimum) public {... */\n      pop\n      jump\t// out\n    tag_26:\n      dataSize(sub_0)\n      dup1\n      dataOffset(sub_0)\n      dup4\n      codecopy\n      add\n      swap1\n      jump\t// out\n        /* \"#utility.yul\":88:205   */\n    tag_32:\n        /* \"#utility.yul\":197:198   */\n      0x00\n        /* \"#utility.yul\":194:195   */\n      dup1\n        /* \"#utility.yul\":187:199   */\n      revert\n        /* \"#utility.yul\":334:411   */\n    tag_34:\n        /* \"#utility.yul\":371:378   */\n      0x00\n        /* \"#utility.yul\":400:405   */\n      dup2\n        /* \"#utility.yul\":389:405   */\n      swap1\n      pop\n        /* \"#utility.yul\":334:411   */\n      swap2\n      swap1\n      pop\n      jump\t// out\n        /* \"#utility.yul\":417:539   */\n    tag_35:\n        /* \"#utility.yul\":490:514   */\n      tag_59\n        /* \"#utility.yul\":508:513   */\n      dup2\n        /* \"#utility.yul\":490:514   */\n      tag_34\n      jump\t// in\n    tag_59:\n        /* \"#utility.yul\":483:488   */\n      dup2\n        /* \"#utility.yul\":480:515   */\n      eq\n        /* \"#utility.yul\":470:533   */\n      tag_60\n      jumpi\n        /* \"#utility.yul\":529:530   */\n      0x00\n        /* \"#utility.yul\":526:527   */\n      dup1\n        /* \"#utility.yul\":519:531   */\n      revert\n        /* \"#utility.yul\":470:533   */\n    tag_60:\n        /* \"#utility.yul\":417:539   */\n      pop\n      jump\t// out\n        /* \"#utility.yul\":545:684   */\n    tag_36:\n        /* \"#utility.yul\":591:596   */\n      0x00\n        /* \"#utility.yul\":629:635   */\n      dup2\n        /* \"#utility.yul\":616:636   */\n      calldataload\n        /* \"#utility.yul\":607:636   */\n      swap1\n      pop\n        /* \"#utility.yul\":645:678   */\n      tag_62\n        /* \"#utility.yul\":672:677   */\n      dup2\n        /* \"#utility.yul\":645:678   */\n      tag_35\n      jump\t// in\n    tag_62:\n        /* \"#utility.yul\":545:684   */\n      swap3\n      swap2\n      pop\n      pop\n      jump\t// out\n        /* \"#utility.yul\":690:1019   */\n    tag_8:\n        /* \"#utility.yul\":749:755   */\n      0x00\n        /* \"#utility.yul\":798:800   */\n      0x20\n        /* \"#utility.yul\":786:795   */\n      dup3\n        /* \"#utility.yul\":777:784   */\n      dup5\n        /* \"#utility.yul\":773:796   */\n      sub\n        /* \"#utility.yul\":769:801   */\n      slt\n        /* \"#utility.yul\":766:885   */\n      iszero\n      tag_64\n      jumpi\n        /* \"#utility.yul\":804:883   */\n      tag_65\n      tag_32\n      jump\t// in\n    tag_65:\n        /* \"#utility.yul\":766:885   */\n    tag_64:\n        /* \"#utility.yul\":924:925   */\n      0x00\n        /* \"#utility.yul\":949:1002   */\n      tag_66\n        /* \"#utility.yul\":994:1001   */\n      dup5\n        /* \"#utility.yul\":985:991   */\n      dup3\n        /* \"#utility.yul\":974:983   */\n      dup6\n        /* \"#utility.yul\":970:992   */\n      add\n        /* \"#utility.yul\":949:1002   */\n      tag_36\n      jump\t// in\n    tag_66:\n        /* \"#utility.yul\":939:1002   */\n      swap2\n      pop\n        /* \"#utility.yul\":895:1012   */\n      pop\n        /* \"#utility.yul\":690:1019   */\n      swap3\n      swap2\n      pop\n      pop\n      jump\t// out\n        /* \"#utility.yul\":1025:1151   */\n    tag_37:\n        /* \"#utility.yul\":1062:1069   */\n      0x00\n        /* \"#utility.yul\":1102:1144   */\n      0xffffffffffffffffffffffffffffffffffffffff\n        /* \"#utility.yul\":1095:1100   */\n      dup3\n        /* \"#utility.yul\":1091:1145   */\n      and\n        /* \"#utility.yul\":1080:1145   */\n      swap1\n      pop\n        /* \"#utility.yul\":1025:1151   */\n      swap2\n      swap1\n      pop\n      jump\t// out\n        /* \"#utility.yul\":1157:1217   */\n    tag_38:\n        /* \"#utility.yul\":1185:1188   */\n      0x00\n        /* \"#utility.yul\":1206:1211   */\n      dup2\n        /* \"#utility.yul\":1199:1211   */\n      swap1\n      pop\n        /* \"#utility.yul\":1157:1217   */\n      swap2\n      swap1\n      pop\n      jump\t// out\n        /* \"#utility.yul\":1223:1365   */\n    tag_39:\n        /* \"#utility.yul\":1273:1282   */\n      0x00\n        /* \"#utility.yul\":1306:1359   */\n      tag_70\n        /* \"#utility.yul\":1324:1358   */\n      tag_71\n        /* \"#utility.yul\":1333:1357   */\n      tag_72\n        /* \"#utility.yul\":1351:1356   */\n      dup5\n        /* \"#utility.yul\":1333:1357   */\n      tag_37\n      jump\t// in\n    tag_72:\n        /* \"#utility.yul\":1324:1358   */\n      tag_38\n      jump\t// in\n    tag_71:\n        /* \"#utility.yul\":1306:1359   */\n      tag_37\n      jump\t// in\n    tag_70:\n        /* \"#utility.yul\":1293:1359   */\n      swap1\n      pop\n        /* \"#utility.yul\":1223:1365   */\n      swap2\n      swap1\n      pop\n      jump\t// out\n        /* \"#utility.yul\":1371:1497   */\n    tag_40:\n        /* \"#utility.yul\":1421:1430   */\n      0x00\n        /* \"#utility.yul\":1454:1491   */\n      tag_74\n        /* \"#utility.yul\":1485:1490   */\n      dup3\n        /* \"#utility.yul\":1454:1491   */\n      tag_39\n      jump\t// in\n    tag_74:\n        /* \"#utility.yul\":1441:1491   */\n      swap1\n      pop\n        /* \"#utility.yul\":1371:1497   */\n      swap2\n      swap1\n      pop\n      jump\t// out\n        /* \"#utility.yul\":1503:1645   */\n    tag_41:\n        /* \"#utility.yul\":1569:1578   */\n      0x00\n        /* \"#utility.yul\":1602:1639   */\n      tag_76\n        /* \"#utility.yul\":1633:1638   */\n      dup3\n        /* \"#utility.yul\":1602:1639   */\n      tag_40\n      jump\t// in\n    tag_76:\n        /* \"#utility.yul\":1589:1639   */\n      swap1\n      pop\n        /* \"#utility.yul\":1503:1645   */\n      swap2\n      swap1\n      pop\n      jump\t// out\n        /* \"#utility.yul\":1651:1814   */\n    tag_42:\n        /* \"#utility.yul\":1754:1807   */\n      tag_78\n        /* \"#utility.yul\":1801:1806   */\n      dup2\n        /* \"#utility.yul\":1754:1807   */\n      tag_41\n      jump\t// in\n    tag_78:\n        /* \"#utility.yul\":1749:1752   */\n      dup3\n        /* \"#utility.yul\":1742:1808   */\n      mstore\n        /* \"#utility.yul\":1651:1814   */\n      pop\n      pop\n      jump\t// out\n        /* \"#utility.yul\":1820:2074   */\n    tag_11:\n        /* \"#utility.yul\":1929:1933   */\n      0x00\n        /* \"#utility.yul\":1967:1969   */\n      0x20\n        /* \"#utility.yul\":1956:1965   */\n      dup3\n        /* \"#utility.yul\":1952:1970   */\n      add\n        /* \"#utility.yul\":1944:1970   */\n      swap1\n      pop\n        /* \"#utility.yul\":1980:2067   */\n      tag_80\n        /* \"#utility.yul\":2064:2065   */\n      0x00\n        /* \"#utility.yul\":2053:2062   */\n      dup4\n        /* \"#utility.yul\":2049:2066   */\n      add\n        /* \"#utility.yul\":2040:2046   */\n      dup5\n        /* \"#utility.yul\":1980:2067   */\n      tag_42\n      jump\t// in\n    tag_80:\n        /* \"#utility.yul\":1820:2074   */\n      swap3\n      swap2\n      pop\n      pop\n      jump\t// out\n        /* \"#utility.yul\":2080:2210   */\n    tag_43:\n        /* \"#utility.yul\":2163:2169   */\n      0x00\n        /* \"#utility.yul\":2197:2202   */\n      dup2\n        /* \"#utility.yul\":2191:2203   */\n      mload\n        /* \"#utility.yul\":2181:2203   */\n      swap1\n      pop\n        /* \"#utility.yul\":2080:2210   */\n      swap2\n      swap1\n      pop\n      jump\t// out\n        /* \"#utility.yul\":2216:2400   */\n    tag_44:\n        /* \"#utility.yul\":2315:2326   */\n      0x00\n        /* \"#utility.yul\":2349:2355   */\n      dup3\n        /* \"#utility.yul\":2344:2347   */\n      dup3\n        /* \"#utility.yul\":2337:2356   */\n      mstore\n        /* \"#utility.yul\":2389:2393   */\n      0x20\n        /* \"#utility.yul\":2384:2387   */\n      dup3\n        /* \"#utility.yul\":2380:2394   */\n      add\n        /* \"#utility.yul\":2365:2394   */\n      swap1\n      pop\n        /* \"#utility.yul\":2216:2400   */\n      swap3\n      swap2\n      pop\n      pop\n      jump\t// out\n        /* \"#utility.yul\":2406:2554   */\n    tag_45:\n        /* \"#utility.yul\":2489:2493   */\n      0x00\n        /* \"#utility.yul\":2512:2515   */\n      dup2\n        /* \"#utility.yul\":2504:2515   */\n      swap1\n      pop\n        /* \"#utility.yul\":2542:2546   */\n      0x20\n        /* \"#utility.yul\":2537:2540   */\n      dup3\n        /* \"#utility.yul\":2533:2547   */\n      add\n        /* \"#utility.yul\":2525:2547   */\n      swap1\n      pop\n        /* \"#utility.yul\":2406:2554   */\n      swap2\n      swap1\n      pop\n      jump\t// out\n        /* \"#utility.yul\":2560:2713   */\n    tag_46:\n        /* \"#utility.yul\":2653:2706   */\n      tag_85\n        /* \"#utility.yul\":2700:2705   */\n      dup2\n        /* \"#utility.yul\":2653:2706   */\n      tag_41\n      jump\t// in\n    tag_85:\n        /* \"#utility.yul\":2648:2651   */\n      dup3\n        /* \"#utility.yul\":2641:2707   */\n      mstore\n        /* \"#utility.yul\":2560:2713   */\n      pop\n      pop\n      jump\t// out\n        /* \"#utility.yul\":2719:2930   */\n    tag_47:\n        /* \"#utility.yul\":2804:2814   */\n      0x00\n        /* \"#utility.yul\":2825:2887   */\n      tag_87\n        /* \"#utility.yul\":2883:2886   */\n      dup4\n        /* \"#utility.yul\":2875:2881   */\n      dup4\n        /* \"#utility.yul\":2825:2887   */\n      tag_46\n      jump\t// in\n    tag_87:\n        /* \"#utility.yul\":2919:2923   */\n      0x20\n        /* \"#utility.yul\":2914:2917   */\n      dup4\n        /* \"#utility.yul\":2910:2924   */\n      add\n        /* \"#utility.yul\":2896:2924   */\n      swap1\n      pop\n        /* \"#utility.yul\":2719:2930   */\n      swap3\n      swap2\n      pop\n      pop\n      jump\t// out\n        /* \"#utility.yul\":2936:3065   */\n    tag_48:\n        /* \"#utility.yul\":3022:3026   */\n      0x00\n        /* \"#utility.yul\":3054:3058   */\n      0x20\n        /* \"#utility.yul\":3049:3052   */\n      dup3\n        /* \"#utility.yul\":3045:3059   */\n      add\n        /* \"#utility.yul\":3037:3059   */\n      swap1\n      pop\n        /* \"#utility.yul\":2936:3065   */\n      swap2\n      swap1\n      pop\n      jump\t// out\n        /* \"#utility.yul\":3111:3923   */\n    tag_49:\n        /* \"#utility.yul\":3246:3249   */\n      0x00\n        /* \"#utility.yul\":3275:3345   */\n      tag_90\n        /* \"#utility.yul\":3339:3344   */\n      dup3\n        /* \"#utility.yul\":3275:3345   */\n      tag_43\n      jump\t// in\n    tag_90:\n        /* \"#utility.yul\":3361:3447   */\n      tag_91\n        /* \"#utility.yul\":3440:3446   */\n      dup2\n        /* \"#utility.yul\":3435:3438   */\n      dup6\n        /* \"#utility.yul\":3361:3447   */\n      tag_44\n      jump\t// in\n    tag_91:\n        /* \"#utility.yul\":3354:3447   */\n      swap4\n      pop\n        /* \"#utility.yul\":3471:3543   */\n      tag_92\n        /* \"#utility.yul\":3537:3542   */\n      dup4\n        /* \"#utility.yul\":3471:3543   */\n      tag_45\n      jump\t// in\n    tag_92:\n        /* \"#utility.yul\":3566:3573   */\n      dup1\n        /* \"#utility.yul\":3597:3598   */\n      0x00\n        /* \"#utility.yul\":3582:3898   */\n    tag_93:\n        /* \"#utility.yul\":3607:3613   */\n      dup4\n        /* \"#utility.yul\":3604:3605   */\n      dup2\n        /* \"#utility.yul\":3601:3614   */\n      lt\n        /* \"#utility.yul\":3582:3898   */\n      iszero\n      tag_95\n      jumpi\n        /* \"#utility.yul\":3683:3689   */\n      dup2\n        /* \"#utility.yul\":3677:3690   */\n      mload\n        /* \"#utility.yul\":3710:3789   */\n      tag_96\n        /* \"#utility.yul\":3785:3788   */\n      dup9\n        /* \"#utility.yul\":3770:3783   */\n      dup3\n        /* \"#utility.yul\":3710:3789   */\n      tag_47\n      jump\t// in\n    tag_96:\n        /* \"#utility.yul\":3703:3789   */\n      swap8\n      pop\n        /* \"#utility.yul\":3812:3888   */\n      tag_97\n        /* \"#utility.yul\":3881:3887   */\n      dup4\n        /* \"#utility.yul\":3812:3888   */\n      tag_48\n      jump\t// in\n    tag_97:\n        /* \"#utility.yul\":3802:3888   */\n      swap3\n      pop\n        /* \"#utility.yul\":3642:3898   */\n      pop\n        /* \"#utility.yul\":3629:3630   */\n      0x01\n        /* \"#utility.yul\":3626:3627   */\n      dup2\n        /* \"#utility.yul\":3622:3631   */\n      add\n        /* \"#utility.yul\":3617:3631   */\n      swap1\n      pop\n        /* \"#utility.yul\":3582:3898   */\n      jump(tag_93)\n    tag_95:\n        /* \"#utility.yul\":3586:3600   */\n      pop\n        /* \"#utility.yul\":3914:3917   */\n      dup6\n        /* \"#utility.yul\":3907:3917   */\n      swap4\n      pop\n        /* \"#utility.yul\":3251:3923   */\n      pop\n      pop\n      pop\n        /* \"#utility.yul\":3111:3923   */\n      swap3\n      swap2\n      pop\n      pop\n      jump\t// out\n        /* \"#utility.yul\":3929:4334   */\n    tag_15:\n        /* \"#utility.yul\":4088:4092   */\n      0x00\n        /* \"#utility.yul\":4126:4128   */\n      0x20\n        /* \"#utility.yul\":4115:4124   */\n      dup3\n        /* \"#utility.yul\":4111:4129   */\n      add\n        /* \"#utility.yul\":4103:4129   */\n      swap1\n      pop\n        /* \"#utility.yul\":4175:4184   */\n      dup2\n        /* \"#utility.yul\":4169:4173   */\n      dup2\n        /* \"#utility.yul\":4165:4185   */\n      sub\n        /* \"#utility.yul\":4161:4162   */\n      0x00\n        /* \"#utility.yul\":4150:4159   */\n      dup4\n        /* \"#utility.yul\":4146:4163   */\n      add\n        /* \"#utility.yul\":4139:4186   */\n      mstore\n        /* \"#utility.yul\":4203:4327   */\n      tag_99\n        /* \"#utility.yul\":4322:4326   */\n      dup2\n        /* \"#utility.yul\":4313:4319   */\n      dup5\n        /* \"#utility.yul\":4203:4327   */\n      tag_49\n      jump\t// in\n    tag_99:\n        /* \"#utility.yul\":4195:4327   */\n      swap1\n      pop\n        /* \"#utility.yul\":3929:4334   */\n      swap3\n      swap2\n      pop\n      pop\n      jump\t// out\n        /* \"#utility.yul\":4340:4458   */\n    tag_50:\n        /* \"#utility.yul\":4427:4451   */\n      tag_101\n        /* \"#utility.yul\":4445:4450   */\n      dup2\n        /* \"#utility.yul\":4427:4451   */\n      tag_34\n      jump\t// in\n    tag_101:\n        /* \"#utility.yul\":4422:4425   */\n      dup3\n        /* \"#utility.yul\":4415:4452   */\n      mstore\n        /* \"#utility.yul\":4340:4458   */\n      pop\n      pop\n      jump\t// out\n        /* \"#utility.yul\":4464:4560   */\n    tag_51:\n        /* \"#utility.yul\":4501:4508   */\n      0x00\n        /* \"#utility.yul\":4530:4554   */\n      tag_103\n        /* \"#utility.yul\":4548:4553   */\n      dup3\n        /* \"#utility.yul\":4530:4554   */\n      tag_37\n      jump\t// in\n    tag_103:\n        /* \"#utility.yul\":4519:4554   */\n      swap1\n      pop\n        /* \"#utility.yul\":4464:4560   */\n      swap2\n      swap1\n      pop\n      jump\t// out\n        /* \"#utility.yul\":4566:4684   */\n    tag_52:\n        /* \"#utility.yul\":4653:4677   */\n      tag_105\n        /* \"#utility.yul\":4671:4676   */\n      dup2\n        /* \"#utility.yul\":4653:4677   */\n      tag_51\n      jump\t// in\n    tag_105:\n        /* \"#utility.yul\":4648:4651   */\n      dup3\n        /* \"#utility.yul\":4641:4678   */\n      mstore\n        /* \"#utility.yul\":4566:4684   */\n      pop\n      pop\n      jump\t// out\n        /* \"#utility.yul\":4690:5022   */\n    tag_28:\n        /* \"#utility.yul\":4811:4815   */\n      0x00\n        /* \"#utility.yul\":4849:4851   */\n      0x40\n        /* \"#utility.yul\":4838:4847   */\n      dup3\n        /* \"#utility.yul\":4834:4852   */\n      add\n        /* \"#utility.yul\":4826:4852   */\n      swap1\n      pop\n        /* \"#utility.yul\":4862:4933   */\n      tag_107\n        /* \"#utility.yul\":4930:4931   */\n      0x00\n        /* \"#utility.yul\":4919:4928   */\n      dup4\n        /* \"#utility.yul\":4915:4932   */\n      add\n        /* \"#utility.yul\":4906:4912   */\n      dup6\n        /* \"#utility.yul\":4862:4933   */\n      tag_50\n      jump\t// in\n    tag_107:\n        /* \"#utility.yul\":4943:5015   */\n      tag_108\n        /* \"#utility.yul\":5011:5013   */\n      0x20\n        /* \"#utility.yul\":5000:5009   */\n      dup4\n        /* \"#utility.yul\":4996:5014   */\n      add\n        /* \"#utility.yul\":4987:4993   */\n      dup5\n        /* \"#utility.yul\":4943:5015   */\n      tag_52\n      jump\t// in\n    tag_108:\n        /* \"#utility.yul\":4690:5022   */\n      swap4\n      swap3\n      pop\n      pop\n      pop\n      jump\t// out\n    stop\n\n    sub_0: assembly {\n            /* \"Campaign.sol\":438:2659  contract Campaign {... */\n          mstore(0x40, 0x80)\n            /* \"Campaign.sol\":991:1110  constructor(uint minimum, address creator) {... */\n          callvalue\n          dup1\n          iszero\n          tag_1\n          jumpi\n          0x00\n          dup1\n          revert\n        tag_1:\n          pop\n          mload(0x40)\n          sub(codesize, bytecodeSize)\n          dup1\n          bytecodeSize\n          dup4\n          codecopy\n          dup2\n          dup2\n          add\n          0x40\n          mstore\n          dup2\n          add\n          swap1\n          tag_2\n          swap2\n          swap1\n          tag_3\n          jump\t// in\n        tag_2:\n            /* \"Campaign.sol\":1055:1062  creator */\n          dup1\n            /* \"Campaign.sol\":1045:1052  manager */\n          0x02\n          0x00\n            /* \"Campaign.sol\":1045:1062  manager = creator */\n          0x0100\n          exp\n          dup2\n          sload\n          dup2\n          0xffffffffffffffffffffffffffffffffffffffff\n          mul\n          not\n          and\n          swap1\n          dup4\n          0xffffffffffffffffffffffffffffffffffffffff\n          and\n          mul\n          or\n          swap1\n          sstore\n          pop\n            /* \"Campaign.sol\":1095:1102  minimum */\n          dup2\n            /* \"Campaign.sol\":1073:1092  minimumContribution */\n          0x03\n            /* \"Campaign.sol\":1073:1102  minimumContribution = minimum */\n          dup2\n          swap1\n          sstore\n          pop\n            /* \"Campaign.sol\":991:1110  constructor(uint minimum, address creator) {... */\n          pop\n          pop\n            /* \"Campaign.sol\":438:2659  contract Campaign {... */\n          jump(tag_6)\n            /* \"#utility.yul\":88:205   */\n        tag_8:\n            /* \"#utility.yul\":197:198   */\n          0x00\n            /* \"#utility.yul\":194:195   */\n          dup1\n            /* \"#utility.yul\":187:199   */\n          revert\n            /* \"#utility.yul\":334:411   */\n        tag_10:\n            /* \"#utility.yul\":371:378   */\n          0x00\n            /* \"#utility.yul\":400:405   */\n          dup2\n            /* \"#utility.yul\":389:405   */\n          swap1\n          pop\n            /* \"#utility.yul\":334:411   */\n          swap2\n          swap1\n          pop\n          jump\t// out\n            /* \"#utility.yul\":417:539   */\n        tag_11:\n            /* \"#utility.yul\":490:514   */\n          tag_23\n            /* \"#utility.yul\":508:513   */\n          dup2\n            /* \"#utility.yul\":490:514   */\n          tag_10\n          jump\t// in\n        tag_23:\n            /* \"#utility.yul\":483:488   */\n          dup2\n            /* \"#utility.yul\":480:515   */\n          eq\n            /* \"#utility.yul\":470:533   */\n          tag_24\n          jumpi\n            /* \"#utility.yul\":529:530   */\n          0x00\n            /* \"#utility.yul\":526:527   */\n          dup1\n            /* \"#utility.yul\":519:531   */\n          revert\n            /* \"#utility.yul\":470:533   */\n        tag_24:\n            /* \"#utility.yul\":417:539   */\n          pop\n          jump\t// out\n            /* \"#utility.yul\":545:688   */\n        tag_12:\n            /* \"#utility.yul\":602:607   */\n          0x00\n            /* \"#utility.yul\":633:639   */\n          dup2\n            /* \"#utility.yul\":627:640   */\n          mload\n            /* \"#utility.yul\":618:640   */\n          swap1\n          pop\n            /* \"#utility.yul\":649:682   */\n          tag_26\n            /* \"#utility.yul\":676:681   */\n          dup2\n            /* \"#utility.yul\":649:682   */\n          tag_11\n          jump\t// in\n        tag_26:\n            /* \"#utility.yul\":545:688   */\n          swap3\n          swap2\n          pop\n          pop\n          jump\t// out\n            /* \"#utility.yul\":694:820   */\n        tag_13:\n            /* \"#utility.yul\":731:738   */\n          0x00\n            /* \"#utility.yul\":771:813   */\n          0xffffffffffffffffffffffffffffffffffffffff\n            /* \"#utility.yul\":764:769   */\n          dup3\n            /* \"#utility.yul\":760:814   */\n          and\n            /* \"#utility.yul\":749:814   */\n          swap1\n          pop\n            /* \"#utility.yul\":694:820   */\n          swap2\n          swap1\n          pop\n          jump\t// out\n            /* \"#utility.yul\":826:922   */\n        tag_14:\n            /* \"#utility.yul\":863:870   */\n          0x00\n            /* \"#utility.yul\":892:916   */\n          tag_29\n            /* \"#utility.yul\":910:915   */\n          dup3\n            /* \"#utility.yul\":892:916   */\n          tag_13\n          jump\t// in\n        tag_29:\n            /* \"#utility.yul\":881:916   */\n          swap1\n          pop\n            /* \"#utility.yul\":826:922   */\n          swap2\n          swap1\n          pop\n          jump\t// out\n            /* \"#utility.yul\":928:1050   */\n        tag_15:\n            /* \"#utility.yul\":1001:1025   */\n          tag_31\n            /* \"#utility.yul\":1019:1024   */\n          dup2\n            /* \"#utility.yul\":1001:1025   */\n          tag_14\n          jump\t// in\n        tag_31:\n            /* \"#utility.yul\":994:999   */\n          dup2\n            /* \"#utility.yul\":991:1026   */\n          eq\n            /* \"#utility.yul\":981:1044   */\n          tag_32\n          jumpi\n            /* \"#utility.yul\":1040:1041   */\n          0x00\n            /* \"#utility.yul\":1037:1038   */\n          dup1\n            /* \"#utility.yul\":1030:1042   */\n          revert\n            /* \"#utility.yul\":981:1044   */\n        tag_32:\n            /* \"#utility.yul\":928:1050   */\n          pop\n          jump\t// out\n            /* \"#utility.yul\":1056:1199   */\n        tag_16:\n            /* \"#utility.yul\":1113:1118   */\n          0x00\n            /* \"#utility.yul\":1144:1150   */\n          dup2\n            /* \"#utility.yul\":1138:1151   */\n          mload\n            /* \"#utility.yul\":1129:1151   */\n          swap1\n          pop\n            /* \"#utility.yul\":1160:1193   */\n          tag_34\n            /* \"#utility.yul\":1187:1192   */\n          dup2\n            /* \"#utility.yul\":1160:1193   */\n          tag_15\n          jump\t// in\n        tag_34:\n            /* \"#utility.yul\":1056:1199   */\n          swap3\n          swap2\n          pop\n          pop\n          jump\t// out\n            /* \"#utility.yul\":1205:1712   */\n        tag_3:\n            /* \"#utility.yul\":1284:1290   */\n          0x00\n            /* \"#utility.yul\":1292:1298   */\n          dup1\n            /* \"#utility.yul\":1341:1343   */\n          0x40\n            /* \"#utility.yul\":1329:1338   */\n          dup4\n            /* \"#utility.yul\":1320:1327   */\n          dup6\n            /* \"#utility.yul\":1316:1339   */\n          sub\n            /* \"#utility.yul\":1312:1344   */\n          slt\n            /* \"#utility.yul\":1309:1428   */\n          iszero\n          tag_36\n          jumpi\n            /* \"#utility.yul\":1347:1426   */\n          tag_37\n          tag_8\n          jump\t// in\n        tag_37:\n            /* \"#utility.yul\":1309:1428   */\n        tag_36:\n            /* \"#utility.yul\":1467:1468   */\n          0x00\n            /* \"#utility.yul\":1492:1556   */\n          tag_38\n            /* \"#utility.yul\":1548:1555   */\n          dup6\n            /* \"#utility.yul\":1539:1545   */\n          dup3\n            /* \"#utility.yul\":1528:1537   */\n          dup7\n            /* \"#utility.yul\":1524:1546   */\n          add\n            /* \"#utility.yul\":1492:1556   */\n          tag_12\n          jump\t// in\n        tag_38:\n            /* \"#utility.yul\":1482:1556   */\n          swap3\n          pop\n            /* \"#utility.yul\":1438:1566   */\n          pop\n            /* \"#utility.yul\":1605:1607   */\n          0x20\n            /* \"#utility.yul\":1631:1695   */\n          tag_39\n            /* \"#utility.yul\":1687:1694   */\n          dup6\n            /* \"#utility.yul\":1678:1684   */\n          dup3\n            /* \"#utility.yul\":1667:1676   */\n          dup7\n            /* \"#utility.yul\":1663:1685   */\n          add\n            /* \"#utility.yul\":1631:1695   */\n          tag_16\n          jump\t// in\n        tag_39:\n            /* \"#utility.yul\":1621:1695   */\n          swap2\n          pop\n            /* \"#utility.yul\":1576:1705   */\n          pop\n            /* \"#utility.yul\":1205:1712   */\n          swap3\n          pop\n          swap3\n          swap1\n          pop\n          jump\t// out\n            /* \"Campaign.sol\":438:2659  contract Campaign {... */\n        tag_6:\n          dataSize(sub_0)\n          dup1\n          dataOffset(sub_0)\n          0x00\n          codecopy\n          0x00\n          return\n        stop\n\n        sub_0: assembly {\n                /* \"Campaign.sol\":438:2659  contract Campaign {... */\n              mstore(0x40, 0x80)\n              jumpi(tag_1, lt(calldatasize, 0x04))\n              shr(0xe0, calldataload(0x00))\n              dup1\n              0x81d12c58\n              gt\n              tag_13\n              jumpi\n              dup1\n              0x81d12c58\n              eq\n              tag_7\n              jumpi\n              dup1\n              0x82fde093\n              eq\n              tag_8\n              jumpi\n              dup1\n              0x8a9cfd55\n              eq\n              tag_9\n              jumpi\n              dup1\n              0x937e09b1\n              eq\n              tag_10\n              jumpi\n              dup1\n              0xd7bb99ba\n              eq\n              tag_11\n              jumpi\n              dup1\n              0xd7d1bbdb\n              eq\n              tag_12\n              jumpi\n              jump(tag_1)\n            tag_13:\n              dup1\n              0x03441006\n              eq\n              tag_2\n              jumpi\n              dup1\n              0x0a144391\n              eq\n              tag_3\n              jumpi\n              dup1\n              0x3410452a\n              eq\n              tag_4\n              jumpi\n              dup1\n              0x4051ddac\n              eq\n              tag_5\n              jumpi\n              dup1\n              0x481c6a75\n              eq\n              tag_6\n              jumpi\n            tag_1:\n              0x00\n              dup1\n              revert\n                /* \"Campaign.sol\":1975:2289  function finalizeRequest(uint index) public restricted {... */\n            tag_2:\n              callvalue\n              dup1\n              iszero\n              tag_14\n              jumpi\n              0x00\n              dup1\n              revert\n            tag_14:\n              pop\n              tag_15\n              0x04\n              dup1\n              calldatasize\n              sub\n              dup2\n              add\n              swap1\n              tag_16\n              swap2\n              swap1\n              tag_17\n              jump\t// in\n            tag_16:\n              tag_18\n              jump\t// in\n            tag_15:\n              stop\n                /* \"Campaign.sol\":817:858  mapping(address => bool) public approvers */\n            tag_3:\n              callvalue\n              dup1\n              iszero\n              tag_19\n              jumpi\n              0x00\n              dup1\n              revert\n            tag_19:\n              pop\n              tag_20\n              0x04\n              dup1\n              calldatasize\n              sub\n              dup2\n              add\n              swap1\n              tag_21\n              swap2\n              swap1\n              tag_22\n              jump\t// in\n            tag_21:\n              tag_23\n              jump\t// in\n            tag_20:\n              mload(0x40)\n              tag_24\n              swap2\n              swap1\n              tag_25\n              jump\t// in\n            tag_24:\n              mload(0x40)\n              dup1\n              swap2\n              sub\n              swap1\n              return\n                /* \"Campaign.sol\":2564:2656  function getRequestsCount() public view returns (uint) {... */\n            tag_4:\n              callvalue\n              dup1\n              iszero\n              tag_26\n              jumpi\n              0x00\n              dup1\n              revert\n            tag_26:\n              pop\n              tag_27\n              tag_28\n              jump\t// in\n            tag_27:\n              mload(0x40)\n              tag_29\n              swap2\n              swap1\n              tag_30\n              jump\t// in\n            tag_29:\n              mload(0x40)\n              dup1\n              swap2\n              sub\n              swap1\n              return\n                /* \"Campaign.sol\":2297:2556  function getSummary() public view returns(uint, uint, uint, uint, address) {... */\n            tag_5:\n              callvalue\n              dup1\n              iszero\n              tag_31\n              jumpi\n              0x00\n              dup1\n              revert\n            tag_31:\n              pop\n              tag_32\n              tag_33\n              jump\t// in\n            tag_32:\n              mload(0x40)\n              tag_34\n              swap6\n              swap5\n              swap4\n              swap3\n              swap2\n              swap1\n              tag_35\n              jump\t// in\n            tag_34:\n              mload(0x40)\n              dup1\n              swap2\n              sub\n              swap1\n              return\n                /* \"Campaign.sol\":750:772  address public manager */\n            tag_6:\n              callvalue\n              dup1\n              iszero\n              tag_36\n              jumpi\n              0x00\n              dup1\n              revert\n            tag_36:\n              pop\n              tag_37\n              tag_38\n              jump\t// in\n            tag_37:\n              mload(0x40)\n              tag_39\n              swap2\n              swap1\n              tag_40\n              jump\t// in\n            tag_39:\n              mload(0x40)\n              dup1\n              swap2\n              sub\n              swap1\n              return\n                /* \"Campaign.sol\":703:743  mapping(uint => Request) public requests */\n            tag_7:\n              callvalue\n              dup1\n              iszero\n              tag_41\n              jumpi\n              0x00\n              dup1\n              revert\n            tag_41:\n              pop\n              tag_42\n              0x04\n              dup1\n              calldatasize\n              sub\n              dup2\n              add\n              swap1\n              tag_43\n              swap2\n              swap1\n              tag_17\n              jump\t// in\n            tag_43:\n              tag_44\n              jump\t// in\n            tag_42:\n              mload(0x40)\n              tag_45\n              swap6\n              swap5\n              swap4\n              swap3\n              swap2\n              swap1\n              tag_46\n              jump\t// in\n            tag_45:\n              mload(0x40)\n              dup1\n              swap2\n              sub\n              swap1\n              return\n                /* \"Campaign.sol\":865:891  uint public approversCount */\n            tag_8:\n              callvalue\n              dup1\n              iszero\n              tag_47\n              jumpi\n              0x00\n              dup1\n              revert\n            tag_47:\n              pop\n              tag_48\n              tag_49\n              jump\t// in\n            tag_48:\n              mload(0x40)\n              tag_50\n              swap2\n              swap1\n              tag_30\n              jump\t// in\n            tag_50:\n              mload(0x40)\n              dup1\n              swap2\n              sub\n              swap1\n              return\n                /* \"Campaign.sol\":1288:1680  function createRequest(string memory description, uint value, address payable recipient) public restricted {... */\n            tag_9:\n              callvalue\n              dup1\n              iszero\n              tag_51\n              jumpi\n              0x00\n              dup1\n              revert\n            tag_51:\n              pop\n              tag_52\n              0x04\n              dup1\n              calldatasize\n              sub\n              dup2\n              add\n              swap1\n              tag_53\n              swap2\n              swap1\n              tag_54\n              jump\t// in\n            tag_53:\n              tag_55\n              jump\t// in\n            tag_52:\n              stop\n                /* \"Campaign.sol\":779:810  uint public minimumContribution */\n            tag_10:\n              callvalue\n              dup1\n              iszero\n              tag_56\n              jumpi\n              0x00\n              dup1\n              revert\n            tag_56:\n              pop\n              tag_57\n              tag_58\n              jump\t// in\n            tag_57:\n              mload(0x40)\n              tag_59\n              swap2\n              swap1\n              tag_30\n              jump\t// in\n            tag_59:\n              mload(0x40)\n              dup1\n              swap2\n              sub\n              swap1\n              return\n                /* \"Campaign.sol\":1118:1280  function contribute() public payable {... */\n            tag_11:\n              tag_60\n              tag_61\n              jump\t// in\n            tag_60:\n              stop\n                /* \"Campaign.sol\":1688:1967  function approveRequest(uint index) public {... */\n            tag_12:\n              callvalue\n              dup1\n              iszero\n              tag_62\n              jumpi\n              0x00\n              dup1\n              revert\n            tag_62:\n              pop\n              tag_63\n              0x04\n              dup1\n              calldatasize\n              sub\n              dup2\n              add\n              swap1\n              tag_64\n              swap2\n              swap1\n              tag_17\n              jump\t// in\n            tag_64:\n              tag_65\n              jump\t// in\n            tag_63:\n              stop\n                /* \"Campaign.sol\":1975:2289  function finalizeRequest(uint index) public restricted {... */\n            tag_18:\n                /* \"Campaign.sol\":955:962  manager */\n              0x02\n              0x00\n              swap1\n              sload\n              swap1\n              0x0100\n              exp\n              swap1\n              div\n              0xffffffffffffffffffffffffffffffffffffffff\n              and\n                /* \"Campaign.sol\":941:962  msg.sender == manager */\n              0xffffffffffffffffffffffffffffffffffffffff\n              and\n                /* \"Campaign.sol\":941:951  msg.sender */\n              caller\n                /* \"Campaign.sol\":941:962  msg.sender == manager */\n              0xffffffffffffffffffffffffffffffffffffffff\n              and\n              eq\n                /* \"Campaign.sol\":933:963  require(msg.sender == manager) */\n              tag_67\n              jumpi\n              0x00\n              dup1\n              revert\n            tag_67:\n                /* \"Campaign.sol\":2041:2064  Request storage request */\n              0x00\n                /* \"Campaign.sol\":2067:2075  requests */\n              0x01\n                /* \"Campaign.sol\":2067:2082  requests[index] */\n              0x00\n                /* \"Campaign.sol\":2076:2081  index */\n              dup4\n                /* \"Campaign.sol\":2067:2082  requests[index] */\n              dup2\n              mstore\n              0x20\n              add\n              swap1\n              dup2\n              mstore\n              0x20\n              add\n              0x00\n              keccak256\n                /* \"Campaign.sol\":2041:2082  Request storage request = requests[index] */\n              swap1\n              pop\n                /* \"Campaign.sol\":2153:2154  2 */\n              0x02\n                /* \"Campaign.sol\":2136:2150  approversCount */\n              sload(0x05)\n                /* \"Campaign.sol\":2136:2154  approversCount / 2 */\n              tag_69\n              swap2\n              swap1\n              tag_70\n              jump\t// in\n            tag_69:\n                /* \"Campaign.sol\":2111:2118  request */\n              dup2\n                /* \"Campaign.sol\":2111:2132  request.approvalCount */\n              0x03\n              add\n              sload\n                /* \"Campaign.sol\":2111:2155  request.approvalCount > (approversCount / 2) */\n              gt\n                /* \"Campaign.sol\":2103:2156  require(request.approvalCount > (approversCount / 2)) */\n              tag_71\n              jumpi\n              0x00\n              dup1\n              revert\n            tag_71:\n                /* \"Campaign.sol\":2176:2183  request */\n              dup1\n                /* \"Campaign.sol\":2176:2192  request.complete */\n              0x02\n              add\n              0x14\n              swap1\n              sload\n              swap1\n              0x0100\n              exp\n              swap1\n              div\n              0xff\n              and\n                /* \"Campaign.sol\":2175:2192  !request.complete */\n              iszero\n                /* \"Campaign.sol\":2167:2193  require(!request.complete) */\n              tag_72\n              jumpi\n              0x00\n              dup1\n              revert\n            tag_72:\n                /* \"Campaign.sol\":2206:2213  request */\n              dup1\n                /* \"Campaign.sol\":2206:2223  request.recipient */\n              0x02\n              add\n              0x00\n              swap1\n              sload\n              swap1\n              0x0100\n              exp\n              swap1\n              div\n              0xffffffffffffffffffffffffffffffffffffffff\n              and\n                /* \"Campaign.sol\":2206:2232  request.recipient.transfer */\n              0xffffffffffffffffffffffffffffffffffffffff\n              and\n                /* \"Campaign.sol\":2206:2247  request.recipient.transfer(request.value) */\n              0x08fc\n                /* \"Campaign.sol\":2233:2240  request */\n              dup3\n                /* \"Campaign.sol\":2233:2246  request.value */\n              0x01\n              add\n              sload\n                /* \"Campaign.sol\":2206:2247  request.recipient.transfer(request.value) */\n              swap1\n              dup2\n              iszero\n              mul\n              swap1\n              mload(0x40)\n              0x00\n              mload(0x40)\n              dup1\n              dup4\n              sub\n              dup2\n              dup6\n              dup9\n              dup9\n              call\n              swap4\n              pop\n              pop\n              pop\n              pop\n              iszero\n              dup1\n              iszero\n              tag_74\n              jumpi\n              returndatasize\n              0x00\n              dup1\n              returndatacopy\n              revert(0x00, returndatasize)\n            tag_74:\n              pop\n                /* \"Campaign.sol\":2277:2281  true */\n              0x01\n                /* \"Campaign.sol\":2258:2265  request */\n              dup2\n                /* \"Campaign.sol\":2258:2274  request.complete */\n              0x02\n              add\n              0x14\n                /* \"Campaign.sol\":2258:2281  request.complete = true */\n              0x0100\n              exp\n              dup2\n              sload\n              dup2\n              0xff\n              mul\n              not\n              and\n              swap1\n              dup4\n              iszero\n              iszero\n              mul\n              or\n              swap1\n              sstore\n              pop\n                /* \"Campaign.sol\":2030:2289  {... */\n              pop\n                /* \"Campaign.sol\":1975:2289  function finalizeRequest(uint index) public restricted {... */\n              pop\n              jump\t// out\n                /* \"Campaign.sol\":817:858  mapping(address => bool) public approvers */\n            tag_23:\n              mstore(0x20, 0x04)\n              dup1\n              0x00\n              mstore\n              keccak256(0x00, 0x40)\n              0x00\n              swap2\n              pop\n              sload\n              swap1\n              0x0100\n              exp\n              swap1\n              div\n              0xff\n              and\n              dup2\n              jump\t// out\n                /* \"Campaign.sol\":2564:2656  function getRequestsCount() public view returns (uint) {... */\n            tag_28:\n                /* \"Campaign.sol\":2613:2617  uint */\n              0x00\n                /* \"Campaign.sol\":2637:2648  numRequests */\n              dup1\n              sload\n                /* \"Campaign.sol\":2630:2648  return numRequests */\n              swap1\n              pop\n                /* \"Campaign.sol\":2564:2656  function getRequestsCount() public view returns (uint) {... */\n              swap1\n              jump\t// out\n                /* \"Campaign.sol\":2297:2556  function getSummary() public view returns(uint, uint, uint, uint, address) {... */\n            tag_33:\n                /* \"Campaign.sol\":2339:2343  uint */\n              0x00\n                /* \"Campaign.sol\":2345:2349  uint */\n              dup1\n                /* \"Campaign.sol\":2351:2355  uint */\n              0x00\n                /* \"Campaign.sol\":2357:2361  uint */\n              dup1\n                /* \"Campaign.sol\":2363:2370  address */\n              0x00\n                /* \"Campaign.sol\":2405:2424  minimumContribution */\n              sload(0x03)\n                /* \"Campaign.sol\":2439:2460  address(this).balance */\n              selfbalance\n                /* \"Campaign.sol\":2475:2486  numRequests */\n              sload(0x00)\n                /* \"Campaign.sol\":2501:2515  approversCount */\n              sload(0x05)\n                /* \"Campaign.sol\":2530:2537  manager */\n              0x02\n              0x00\n              swap1\n              sload\n              swap1\n              0x0100\n              exp\n              swap1\n              div\n              0xffffffffffffffffffffffffffffffffffffffff\n              and\n                /* \"Campaign.sol\":2383:2548  return (... */\n              swap5\n              pop\n              swap5\n              pop\n              swap5\n              pop\n              swap5\n              pop\n              swap5\n              pop\n                /* \"Campaign.sol\":2297:2556  function getSummary() public view returns(uint, uint, uint, uint, address) {... */\n              swap1\n              swap2\n              swap3\n              swap4\n              swap5\n              jump\t// out\n                /* \"Campaign.sol\":750:772  address public manager */\n            tag_38:\n              0x02\n              0x00\n              swap1\n              sload\n              swap1\n              0x0100\n              exp\n              swap1\n              div\n              0xffffffffffffffffffffffffffffffffffffffff\n              and\n              dup2\n              jump\t// out\n                /* \"Campaign.sol\":703:743  mapping(uint => Request) public requests */\n            tag_44:\n              mstore(0x20, 0x01)\n              dup1\n              0x00\n              mstore\n              keccak256(0x00, 0x40)\n              0x00\n              swap2\n              pop\n              swap1\n              pop\n              dup1\n              0x00\n              add\n              dup1\n              sload\n              tag_77\n              swap1\n              tag_78\n              jump\t// in\n            tag_77:\n              dup1\n              0x1f\n              add\n              0x20\n              dup1\n              swap2\n              div\n              mul\n              0x20\n              add\n              mload(0x40)\n              swap1\n              dup2\n              add\n              0x40\n              mstore\n              dup1\n              swap3\n              swap2\n              swap1\n              dup2\n              dup2\n              mstore\n              0x20\n              add\n              dup3\n              dup1\n              sload\n              tag_79\n              swap1\n              tag_78\n              jump\t// in\n            tag_79:\n              dup1\n              iszero\n              tag_80\n              jumpi\n              dup1\n              0x1f\n              lt\n              tag_81\n              jumpi\n              0x0100\n              dup1\n              dup4\n              sload\n              div\n              mul\n              dup4\n              mstore\n              swap2\n              0x20\n              add\n              swap2\n              jump(tag_80)\n            tag_81:\n              dup3\n              add\n              swap2\n              swap1\n              0x00\n              mstore\n              keccak256(0x00, 0x20)\n              swap1\n            tag_82:\n              dup2\n              sload\n              dup2\n              mstore\n              swap1\n              0x01\n              add\n              swap1\n              0x20\n              add\n              dup1\n              dup4\n              gt\n              tag_82\n              jumpi\n              dup3\n              swap1\n              sub\n              0x1f\n              and\n              dup3\n              add\n              swap2\n            tag_80:\n              pop\n              pop\n              pop\n              pop\n              pop\n              swap1\n              dup1\n              0x01\n              add\n              sload\n              swap1\n              dup1\n              0x02\n              add\n              0x00\n              swap1\n              sload\n              swap1\n              0x0100\n              exp\n              swap1\n              div\n              0xffffffffffffffffffffffffffffffffffffffff\n              and\n              swap1\n              dup1\n              0x02\n              add\n              0x14\n              swap1\n              sload\n              swap1\n              0x0100\n              exp\n              swap1\n              div\n              0xff\n              and\n              swap1\n              dup1\n              0x03\n              add\n              sload\n              swap1\n              pop\n              dup6\n              jump\t// out\n                /* \"Campaign.sol\":865:891  uint public approversCount */\n            tag_49:\n              sload(0x05)\n              dup2\n              jump\t// out\n                /* \"Campaign.sol\":1288:1680  function createRequest(string memory description, uint value, address payable recipient) public restricted {... */\n            tag_55:\n                /* \"Campaign.sol\":955:962  manager */\n              0x02\n              0x00\n              swap1\n              sload\n              swap1\n              0x0100\n              exp\n              swap1\n              div\n              0xffffffffffffffffffffffffffffffffffffffff\n              and\n                /* \"Campaign.sol\":941:962  msg.sender == manager */\n              0xffffffffffffffffffffffffffffffffffffffff\n              and\n                /* \"Campaign.sol\":941:951  msg.sender */\n              caller\n                /* \"Campaign.sol\":941:962  msg.sender == manager */\n              0xffffffffffffffffffffffffffffffffffffffff\n              and\n              eq\n                /* \"Campaign.sol\":933:963  require(msg.sender == manager) */\n              tag_84\n              jumpi\n              0x00\n              dup1\n              revert\n            tag_84:\n                /* \"Campaign.sol\":1416:1442  Request storage newRequest */\n              0x00\n                /* \"Campaign.sol\":1445:1453  requests */\n              0x01\n                /* \"Campaign.sol\":1445:1468  requests[numRequests++] */\n              0x00\n                /* \"Campaign.sol\":1454:1465  numRequests */\n              dup1\n              0x00\n                /* \"Campaign.sol\":1454:1467  numRequests++ */\n              dup2\n              sload\n              dup1\n              swap3\n              swap2\n              swap1\n              tag_86\n              swap1\n              tag_87\n              jump\t// in\n            tag_86:\n              swap2\n              swap1\n              pop\n              sstore\n                /* \"Campaign.sol\":1445:1468  requests[numRequests++] */\n              dup2\n              mstore\n              0x20\n              add\n              swap1\n              dup2\n              mstore\n              0x20\n              add\n              0x00\n              keccak256\n                /* \"Campaign.sol\":1416:1468  Request storage newRequest = requests[numRequests++] */\n              swap1\n              pop\n                /* \"Campaign.sol\":1504:1515  description */\n              dup4\n                /* \"Campaign.sol\":1479:1489  newRequest */\n              dup2\n                /* \"Campaign.sol\":1479:1501  newRequest.description */\n              0x00\n              add\n                /* \"Campaign.sol\":1479:1515  newRequest.description = description */\n              swap1\n              dup1\n              mload\n              swap1\n              0x20\n              add\n              swap1\n              tag_88\n              swap3\n              swap2\n              swap1\n              tag_89\n              jump\t// in\n            tag_88:\n              pop\n                /* \"Campaign.sol\":1545:1550  value */\n              dup3\n                /* \"Campaign.sol\":1526:1536  newRequest */\n              dup2\n                /* \"Campaign.sol\":1526:1542  newRequest.value */\n              0x01\n              add\n                /* \"Campaign.sol\":1526:1550  newRequest.value = value */\n              dup2\n              swap1\n              sstore\n              pop\n                /* \"Campaign.sol\":1584:1593  recipient */\n              dup2\n                /* \"Campaign.sol\":1561:1571  newRequest */\n              dup2\n                /* \"Campaign.sol\":1561:1581  newRequest.recipient */\n              0x02\n              add\n              0x00\n                /* \"Campaign.sol\":1561:1593  newRequest.recipient = recipient */\n              0x0100\n              exp\n              dup2\n              sload\n              dup2\n              0xffffffffffffffffffffffffffffffffffffffff\n              mul\n              not\n              and\n              swap1\n              dup4\n              0xffffffffffffffffffffffffffffffffffffffff\n              and\n              mul\n              or\n              swap1\n              sstore\n              pop\n                /* \"Campaign.sol\":1626:1631  false */\n              0x00\n                /* \"Campaign.sol\":1604:1614  newRequest */\n              dup2\n                /* \"Campaign.sol\":1604:1623  newRequest.complete */\n              0x02\n              add\n              0x14\n                /* \"Campaign.sol\":1604:1631  newRequest.complete = false */\n              0x0100\n              exp\n              dup2\n              sload\n              dup2\n              0xff\n              mul\n              not\n              and\n              swap1\n              dup4\n              iszero\n              iszero\n              mul\n              or\n              swap1\n              sstore\n              pop\n                /* \"Campaign.sol\":1669:1670  0 */\n              0x00\n                /* \"Campaign.sol\":1642:1652  newRequest */\n              dup2\n                /* \"Campaign.sol\":1642:1666  newRequest.approvalCount */\n              0x03\n              add\n                /* \"Campaign.sol\":1642:1670  newRequest.approvalCount = 0 */\n              dup2\n              swap1\n              sstore\n              pop\n                /* \"Campaign.sol\":1395:1680  {... */\n              pop\n                /* \"Campaign.sol\":1288:1680  function createRequest(string memory description, uint value, address payable recipient) public restricted {... */\n              pop\n              pop\n              pop\n              jump\t// out\n                /* \"Campaign.sol\":779:810  uint public minimumContribution */\n            tag_58:\n              sload(0x03)\n              dup2\n              jump\t// out\n                /* \"Campaign.sol\":1118:1280  function contribute() public payable {... */\n            tag_61:\n                /* \"Campaign.sol\":1186:1205  minimumContribution */\n              sload(0x03)\n                /* \"Campaign.sol\":1174:1183  msg.value */\n              callvalue\n                /* \"Campaign.sol\":1174:1205  msg.value > minimumContribution */\n              gt\n                /* \"Campaign.sol\":1166:1206  require(msg.value > minimumContribution) */\n              tag_91\n              jumpi\n              0x00\n              dup1\n              revert\n            tag_91:\n                /* \"Campaign.sol\":1241:1245  true */\n              0x01\n                /* \"Campaign.sol\":1217:1226  approvers */\n              0x04\n                /* \"Campaign.sol\":1217:1238  approvers[msg.sender] */\n              0x00\n                /* \"Campaign.sol\":1227:1237  msg.sender */\n              caller\n                /* \"Campaign.sol\":1217:1238  approvers[msg.sender] */\n              0xffffffffffffffffffffffffffffffffffffffff\n              and\n              0xffffffffffffffffffffffffffffffffffffffff\n              and\n              dup2\n              mstore\n              0x20\n              add\n              swap1\n              dup2\n              mstore\n              0x20\n              add\n              0x00\n              keccak256\n              0x00\n                /* \"Campaign.sol\":1217:1245  approvers[msg.sender] = true */\n              0x0100\n              exp\n              dup2\n              sload\n              dup2\n              0xff\n              mul\n              not\n              and\n              swap1\n              dup4\n              iszero\n              iszero\n              mul\n              or\n              swap1\n              sstore\n              pop\n                /* \"Campaign.sol\":1256:1270  approversCount */\n              0x05\n              0x00\n                /* \"Campaign.sol\":1256:1272  approversCount++ */\n              dup2\n              sload\n              dup1\n              swap3\n              swap2\n              swap1\n              tag_92\n              swap1\n              tag_87\n              jump\t// in\n            tag_92:\n              swap2\n              swap1\n              pop\n              sstore\n              pop\n                /* \"Campaign.sol\":1118:1280  function contribute() public payable {... */\n              jump\t// out\n                /* \"Campaign.sol\":1688:1967  function approveRequest(uint index) public {... */\n            tag_65:\n                /* \"Campaign.sol\":1742:1765  Request storage request */\n              0x00\n                /* \"Campaign.sol\":1768:1776  requests */\n              0x01\n                /* \"Campaign.sol\":1768:1783  requests[index] */\n              0x00\n                /* \"Campaign.sol\":1777:1782  index */\n              dup4\n                /* \"Campaign.sol\":1768:1783  requests[index] */\n              dup2\n              mstore\n              0x20\n              add\n              swap1\n              dup2\n              mstore\n              0x20\n              add\n              0x00\n              keccak256\n                /* \"Campaign.sol\":1742:1783  Request storage request = requests[index] */\n              swap1\n              pop\n                /* \"Campaign.sol\":1804:1813  approvers */\n              0x04\n                /* \"Campaign.sol\":1804:1825  approvers[msg.sender] */\n              0x00\n                /* \"Campaign.sol\":1814:1824  msg.sender */\n              caller\n                /* \"Campaign.sol\":1804:1825  approvers[msg.sender] */\n              0xffffffffffffffffffffffffffffffffffffffff\n              and\n              0xffffffffffffffffffffffffffffffffffffffff\n              and\n              dup2\n              mstore\n              0x20\n              add\n              swap1\n              dup2\n              mstore\n              0x20\n              add\n              0x00\n              keccak256\n              0x00\n              swap1\n              sload\n              swap1\n              0x0100\n              exp\n              swap1\n              div\n              0xff\n              and\n                /* \"Campaign.sol\":1796:1826  require(approvers[msg.sender]) */\n              tag_94\n              jumpi\n              0x00\n              dup1\n              revert\n            tag_94:\n                /* \"Campaign.sol\":1846:1853  request */\n              dup1\n                /* \"Campaign.sol\":1846:1863  request.approvals */\n              0x04\n              add\n                /* \"Campaign.sol\":1846:1875  request.approvals[msg.sender] */\n              0x00\n                /* \"Campaign.sol\":1864:1874  msg.sender */\n              caller\n                /* \"Campaign.sol\":1846:1875  request.approvals[msg.sender] */\n              0xffffffffffffffffffffffffffffffffffffffff\n              and\n              0xffffffffffffffffffffffffffffffffffffffff\n              and\n              dup2\n              mstore\n              0x20\n              add\n              swap1\n              dup2\n              mstore\n              0x20\n              add\n              0x00\n              keccak256\n              0x00\n              swap1\n              sload\n              swap1\n              0x0100\n              exp\n              swap1\n              div\n              0xff\n              and\n                /* \"Campaign.sol\":1845:1875  !request.approvals[msg.sender] */\n              iszero\n                /* \"Campaign.sol\":1837:1876  require(!request.approvals[msg.sender]) */\n              tag_95\n              jumpi\n              0x00\n              dup1\n              revert\n            tag_95:\n                /* \"Campaign.sol\":1921:1925  true */\n              0x01\n                /* \"Campaign.sol\":1889:1896  request */\n              dup2\n                /* \"Campaign.sol\":1889:1906  request.approvals */\n              0x04\n              add\n                /* \"Campaign.sol\":1889:1918  request.approvals[msg.sender] */\n              0x00\n                /* \"Campaign.sol\":1907:1917  msg.sender */\n              caller\n                /* \"Campaign.sol\":1889:1918  request.approvals[msg.sender] */\n              0xffffffffffffffffffffffffffffffffffffffff\n              and\n              0xffffffffffffffffffffffffffffffffffffffff\n              and\n              dup2\n              mstore\n              0x20\n              add\n              swap1\n              dup2\n              mstore\n              0x20\n              add\n              0x00\n              keccak256\n              0x00\n                /* \"Campaign.sol\":1889:1925  request.approvals[msg.sender] = true */\n              0x0100\n              exp\n              dup2\n              sload\n              dup2\n              0xff\n              mul\n              not\n              and\n              swap1\n              dup4\n              iszero\n              iszero\n              mul\n              or\n              swap1\n              sstore\n              pop\n                /* \"Campaign.sol\":1936:1943  request */\n              dup1\n                /* \"Campaign.sol\":1936:1957  request.approvalCount */\n              0x03\n              add\n              0x00\n                /* \"Campaign.sol\":1936:1959  request.approvalCount++ */\n              dup2\n              sload\n              dup1\n              swap3\n              swap2\n              swap1\n              tag_96\n              swap1\n              tag_87\n              jump\t// in\n            tag_96:\n              swap2\n              swap1\n              pop\n              sstore\n              pop\n                /* \"Campaign.sol\":1731:1967  {... */\n              pop\n                /* \"Campaign.sol\":1688:1967  function approveRequest(uint index) public {... */\n              pop\n              jump\t// out\n            tag_89:\n              dup3\n              dup1\n              sload\n              tag_97\n              swap1\n              tag_78\n              jump\t// in\n            tag_97:\n              swap1\n              0x00\n              mstore\n              keccak256(0x00, 0x20)\n              swap1\n              0x1f\n              add\n              0x20\n              swap1\n              div\n              dup2\n              add\n              swap3\n              dup3\n              tag_99\n              jumpi\n              0x00\n              dup6\n              sstore\n              jump(tag_98)\n            tag_99:\n              dup3\n              0x1f\n              lt\n              tag_100\n              jumpi\n              dup1\n              mload\n              not(0xff)\n              and\n              dup4\n              dup1\n              add\n              or\n              dup6\n              sstore\n              jump(tag_98)\n            tag_100:\n              dup3\n              dup1\n              add\n              0x01\n              add\n              dup6\n              sstore\n              dup3\n              iszero\n              tag_98\n              jumpi\n              swap2\n              dup3\n              add\n            tag_101:\n              dup3\n              dup2\n              gt\n              iszero\n              tag_102\n              jumpi\n              dup3\n              mload\n              dup3\n              sstore\n              swap2\n              0x20\n              add\n              swap2\n              swap1\n              0x01\n              add\n              swap1\n              jump(tag_101)\n            tag_102:\n            tag_98:\n              pop\n              swap1\n              pop\n              tag_103\n              swap2\n              swap1\n              tag_104\n              jump\t// in\n            tag_103:\n              pop\n              swap1\n              jump\t// out\n            tag_104:\n            tag_105:\n              dup1\n              dup3\n              gt\n              iszero\n              tag_106\n              jumpi\n              0x00\n              dup2\n              0x00\n              swap1\n              sstore\n              pop\n              0x01\n              add\n              jump(tag_105)\n            tag_106:\n              pop\n              swap1\n              jump\t// out\n                /* \"#utility.yul\":7:82   */\n            tag_107:\n                /* \"#utility.yul\":40:46   */\n              0x00\n                /* \"#utility.yul\":73:75   */\n              0x40\n                /* \"#utility.yul\":67:76   */\n              mload\n                /* \"#utility.yul\":57:76   */\n              swap1\n              pop\n                /* \"#utility.yul\":7:82   */\n              swap1\n              jump\t// out\n                /* \"#utility.yul\":88:205   */\n            tag_108:\n                /* \"#utility.yul\":197:198   */\n              0x00\n                /* \"#utility.yul\":194:195   */\n              dup1\n                /* \"#utility.yul\":187:199   */\n              revert\n                /* \"#utility.yul\":211:328   */\n            tag_109:\n                /* \"#utility.yul\":320:321   */\n              0x00\n                /* \"#utility.yul\":317:318   */\n              dup1\n                /* \"#utility.yul\":310:322   */\n              revert\n                /* \"#utility.yul\":334:411   */\n            tag_110:\n                /* \"#utility.yul\":371:378   */\n              0x00\n                /* \"#utility.yul\":400:405   */\n              dup2\n                /* \"#utility.yul\":389:405   */\n              swap1\n              pop\n                /* \"#utility.yul\":334:411   */\n              swap2\n              swap1\n              pop\n              jump\t// out\n                /* \"#utility.yul\":417:539   */\n            tag_111:\n                /* \"#utility.yul\":490:514   */\n              tag_148\n                /* \"#utility.yul\":508:513   */\n              dup2\n                /* \"#utility.yul\":490:514   */\n              tag_110\n              jump\t// in\n            tag_148:\n                /* \"#utility.yul\":483:488   */\n              dup2\n                /* \"#utility.yul\":480:515   */\n              eq\n                /* \"#utility.yul\":470:533   */\n              tag_149\n              jumpi\n                /* \"#utility.yul\":529:530   */\n              0x00\n                /* \"#utility.yul\":526:527   */\n              dup1\n                /* \"#utility.yul\":519:531   */\n              revert\n                /* \"#utility.yul\":470:533   */\n            tag_149:\n                /* \"#utility.yul\":417:539   */\n              pop\n              jump\t// out\n                /* \"#utility.yul\":545:684   */\n            tag_112:\n                /* \"#utility.yul\":591:596   */\n              0x00\n                /* \"#utility.yul\":629:635   */\n              dup2\n                /* \"#utility.yul\":616:636   */\n              calldataload\n                /* \"#utility.yul\":607:636   */\n              swap1\n              pop\n                /* \"#utility.yul\":645:678   */\n              tag_151\n                /* \"#utility.yul\":672:677   */\n              dup2\n                /* \"#utility.yul\":645:678   */\n              tag_111\n              jump\t// in\n            tag_151:\n                /* \"#utility.yul\":545:684   */\n              swap3\n              swap2\n              pop\n              pop\n              jump\t// out\n                /* \"#utility.yul\":690:1019   */\n            tag_17:\n                /* \"#utility.yul\":749:755   */\n              0x00\n                /* \"#utility.yul\":798:800   */\n              0x20\n                /* \"#utility.yul\":786:795   */\n              dup3\n                /* \"#utility.yul\":777:784   */\n              dup5\n                /* \"#utility.yul\":773:796   */\n              sub\n                /* \"#utility.yul\":769:801   */\n              slt\n                /* \"#utility.yul\":766:885   */\n              iszero\n              tag_153\n              jumpi\n                /* \"#utility.yul\":804:883   */\n              tag_154\n              tag_108\n              jump\t// in\n            tag_154:\n                /* \"#utility.yul\":766:885   */\n            tag_153:\n                /* \"#utility.yul\":924:925   */\n              0x00\n                /* \"#utility.yul\":949:1002   */\n              tag_155\n                /* \"#utility.yul\":994:1001   */\n              dup5\n                /* \"#utility.yul\":985:991   */\n              dup3\n                /* \"#utility.yul\":974:983   */\n              dup6\n                /* \"#utility.yul\":970:992   */\n              add\n                /* \"#utility.yul\":949:1002   */\n              tag_112\n              jump\t// in\n            tag_155:\n                /* \"#utility.yul\":939:1002   */\n              swap2\n              pop\n                /* \"#utility.yul\":895:1012   */\n              pop\n                /* \"#utility.yul\":690:1019   */\n              swap3\n              swap2\n              pop\n              pop\n              jump\t// out\n                /* \"#utility.yul\":1025:1151   */\n            tag_113:\n                /* \"#utility.yul\":1062:1069   */\n              0x00\n                /* \"#utility.yul\":1102:1144   */\n              0xffffffffffffffffffffffffffffffffffffffff\n                /* \"#utility.yul\":1095:1100   */\n              dup3\n                /* \"#utility.yul\":1091:1145   */\n              and\n                /* \"#utility.yul\":1080:1145   */\n              swap1\n              pop\n                /* \"#utility.yul\":1025:1151   */\n              swap2\n              swap1\n              pop\n              jump\t// out\n                /* \"#utility.yul\":1157:1253   */\n            tag_114:\n                /* \"#utility.yul\":1194:1201   */\n              0x00\n                /* \"#utility.yul\":1223:1247   */\n              tag_158\n                /* \"#utility.yul\":1241:1246   */\n              dup3\n                /* \"#utility.yul\":1223:1247   */\n              tag_113\n              jump\t// in\n            tag_158:\n                /* \"#utility.yul\":1212:1247   */\n              swap1\n              pop\n                /* \"#utility.yul\":1157:1253   */\n              swap2\n              swap1\n              pop\n              jump\t// out\n                /* \"#utility.yul\":1259:1381   */\n            tag_115:\n                /* \"#utility.yul\":1332:1356   */\n              tag_160\n                /* \"#utility.yul\":1350:1355   */\n              dup2\n                /* \"#utility.yul\":1332:1356   */\n              tag_114\n              jump\t// in\n            tag_160:\n                /* \"#utility.yul\":1325:1330   */\n              dup2\n                /* \"#utility.yul\":1322:1357   */\n              eq\n                /* \"#utility.yul\":1312:1375   */\n              tag_161\n              jumpi\n                /* \"#utility.yul\":1371:1372   */\n              0x00\n                /* \"#utility.yul\":1368:1369   */\n              dup1\n                /* \"#utility.yul\":1361:1373   */\n              revert\n                /* \"#utility.yul\":1312:1375   */\n            tag_161:\n                /* \"#utility.yul\":1259:1381   */\n              pop\n              jump\t// out\n                /* \"#utility.yul\":1387:1526   */\n            tag_116:\n                /* \"#utility.yul\":1433:1438   */\n              0x00\n                /* \"#utility.yul\":1471:1477   */\n              dup2\n                /* \"#utility.yul\":1458:1478   */\n              calldataload\n                /* \"#utility.yul\":1449:1478   */\n              swap1\n              pop\n                /* \"#utility.yul\":1487:1520   */\n              tag_163\n                /* \"#utility.yul\":1514:1519   */\n              dup2\n                /* \"#utility.yul\":1487:1520   */\n              tag_115\n              jump\t// in\n            tag_163:\n                /* \"#utility.yul\":1387:1526   */\n              swap3\n              swap2\n              pop\n              pop\n              jump\t// out\n                /* \"#utility.yul\":1532:1861   */\n            tag_22:\n                /* \"#utility.yul\":1591:1597   */\n              0x00\n                /* \"#utility.yul\":1640:1642   */\n              0x20\n                /* \"#utility.yul\":1628:1637   */\n              dup3\n                /* \"#utility.yul\":1619:1626   */\n              dup5\n                /* \"#utility.yul\":1615:1638   */\n              sub\n                /* \"#utility.yul\":1611:1643   */\n              slt\n                /* \"#utility.yul\":1608:1727   */\n              iszero\n              tag_165\n              jumpi\n                /* \"#utility.yul\":1646:1725   */\n              tag_166\n              tag_108\n              jump\t// in\n            tag_166:\n                /* \"#utility.yul\":1608:1727   */\n            tag_165:\n                /* \"#utility.yul\":1766:1767   */\n              0x00\n                /* \"#utility.yul\":1791:1844   */\n              tag_167\n                /* \"#utility.yul\":1836:1843   */\n              dup5\n                /* \"#utility.yul\":1827:1833   */\n              dup3\n                /* \"#utility.yul\":1816:1825   */\n              dup6\n                /* \"#utility.yul\":1812:1834   */\n              add\n                /* \"#utility.yul\":1791:1844   */\n              tag_116\n              jump\t// in\n            tag_167:\n                /* \"#utility.yul\":1781:1844   */\n              swap2\n              pop\n                /* \"#utility.yul\":1737:1854   */\n              pop\n                /* \"#utility.yul\":1532:1861   */\n              swap3\n              swap2\n              pop\n              pop\n              jump\t// out\n                /* \"#utility.yul\":1867:1957   */\n            tag_117:\n                /* \"#utility.yul\":1901:1908   */\n              0x00\n                /* \"#utility.yul\":1944:1949   */\n              dup2\n                /* \"#utility.yul\":1937:1950   */\n              iszero\n                /* \"#utility.yul\":1930:1951   */\n              iszero\n                /* \"#utility.yul\":1919:1951   */\n              swap1\n              pop\n                /* \"#utility.yul\":1867:1957   */\n              swap2\n              swap1\n              pop\n              jump\t// out\n                /* \"#utility.yul\":1963:2072   */\n            tag_118:\n                /* \"#utility.yul\":2044:2065   */\n              tag_170\n                /* \"#utility.yul\":2059:2064   */\n              dup2\n                /* \"#utility.yul\":2044:2065   */\n              tag_117\n              jump\t// in\n            tag_170:\n                /* \"#utility.yul\":2039:2042   */\n              dup3\n                /* \"#utility.yul\":2032:2066   */\n              mstore\n                /* \"#utility.yul\":1963:2072   */\n              pop\n              pop\n              jump\t// out\n                /* \"#utility.yul\":2078:2288   */\n            tag_25:\n                /* \"#utility.yul\":2165:2169   */\n              0x00\n                /* \"#utility.yul\":2203:2205   */\n              0x20\n                /* \"#utility.yul\":2192:2201   */\n              dup3\n                /* \"#utility.yul\":2188:2206   */\n              add\n                /* \"#utility.yul\":2180:2206   */\n              swap1\n              pop\n                /* \"#utility.yul\":2216:2281   */\n              tag_172\n                /* \"#utility.yul\":2278:2279   */\n              0x00\n                /* \"#utility.yul\":2267:2276   */\n              dup4\n                /* \"#utility.yul\":2263:2280   */\n              add\n                /* \"#utility.yul\":2254:2260   */\n              dup5\n                /* \"#utility.yul\":2216:2281   */\n              tag_118\n              jump\t// in\n            tag_172:\n                /* \"#utility.yul\":2078:2288   */\n              swap3\n              swap2\n              pop\n              pop\n              jump\t// out\n                /* \"#utility.yul\":2294:2412   */\n            tag_119:\n                /* \"#utility.yul\":2381:2405   */\n              tag_174\n                /* \"#utility.yul\":2399:2404   */\n              dup2\n                /* \"#utility.yul\":2381:2405   */\n              tag_110\n              jump\t// in\n            tag_174:\n                /* \"#utility.yul\":2376:2379   */\n              dup3\n                /* \"#utility.yul\":2369:2406   */\n              mstore\n                /* \"#utility.yul\":2294:2412   */\n              pop\n              pop\n              jump\t// out\n                /* \"#utility.yul\":2418:2640   */\n            tag_30:\n                /* \"#utility.yul\":2511:2515   */\n              0x00\n                /* \"#utility.yul\":2549:2551   */\n              0x20\n                /* \"#utility.yul\":2538:2547   */\n              dup3\n                /* \"#utility.yul\":2534:2552   */\n              add\n                /* \"#utility.yul\":2526:2552   */\n              swap1\n              pop\n                /* \"#utility.yul\":2562:2633   */\n              tag_176\n                /* \"#utility.yul\":2630:2631   */\n              0x00\n                /* \"#utility.yul\":2619:2628   */\n              dup4\n                /* \"#utility.yul\":2615:2632   */\n              add\n                /* \"#utility.yul\":2606:2612   */\n              dup5\n                /* \"#utility.yul\":2562:2633   */\n              tag_119\n              jump\t// in\n            tag_176:\n                /* \"#utility.yul\":2418:2640   */\n              swap3\n              swap2\n              pop\n              pop\n              jump\t// out\n                /* \"#utility.yul\":2646:2764   */\n            tag_120:\n                /* \"#utility.yul\":2733:2757   */\n              tag_178\n                /* \"#utility.yul\":2751:2756   */\n              dup2\n                /* \"#utility.yul\":2733:2757   */\n              tag_114\n              jump\t// in\n            tag_178:\n                /* \"#utility.yul\":2728:2731   */\n              dup3\n                /* \"#utility.yul\":2721:2758   */\n              mstore\n                /* \"#utility.yul\":2646:2764   */\n              pop\n              pop\n              jump\t// out\n                /* \"#utility.yul\":2770:3434   */\n            tag_35:\n                /* \"#utility.yul\":2975:2979   */\n              0x00\n                /* \"#utility.yul\":3013:3016   */\n              0xa0\n                /* \"#utility.yul\":3002:3011   */\n              dup3\n                /* \"#utility.yul\":2998:3017   */\n              add\n                /* \"#utility.yul\":2990:3017   */\n              swap1\n              pop\n                /* \"#utility.yul\":3027:3098   */\n              tag_180\n                /* \"#utility.yul\":3095:3096   */\n              0x00\n                /* \"#utility.yul\":3084:3093   */\n              dup4\n                /* \"#utility.yul\":3080:3097   */\n              add\n                /* \"#utility.yul\":3071:3077   */\n              dup9\n                /* \"#utility.yul\":3027:3098   */\n              tag_119\n              jump\t// in\n            tag_180:\n                /* \"#utility.yul\":3108:3180   */\n              tag_181\n                /* \"#utility.yul\":3176:3178   */\n              0x20\n                /* \"#utility.yul\":3165:3174   */\n              dup4\n                /* \"#utility.yul\":3161:3179   */\n              add\n                /* \"#utility.yul\":3152:3158   */\n              dup8\n                /* \"#utility.yul\":3108:3180   */\n              tag_119\n              jump\t// in\n            tag_181:\n                /* \"#utility.yul\":3190:3262   */\n              tag_182\n                /* \"#utility.yul\":3258:3260   */\n              0x40\n                /* \"#utility.yul\":3247:3256   */\n              dup4\n                /* \"#utility.yul\":3243:3261   */\n              add\n                /* \"#utility.yul\":3234:3240   */\n              dup7\n                /* \"#utility.yul\":3190:3262   */\n              tag_119\n              jump\t// in\n            tag_182:\n                /* \"#utility.yul\":3272:3344   */\n              tag_183\n                /* \"#utility.yul\":3340:3342   */\n              0x60\n                /* \"#utility.yul\":3329:3338   */\n              dup4\n                /* \"#utility.yul\":3325:3343   */\n              add\n                /* \"#utility.yul\":3316:3322   */\n              dup6\n                /* \"#utility.yul\":3272:3344   */\n              tag_119\n              jump\t// in\n            tag_183:\n                /* \"#utility.yul\":3354:3427   */\n              tag_184\n                /* \"#utility.yul\":3422:3425   */\n              0x80\n                /* \"#utility.yul\":3411:3420   */\n              dup4\n                /* \"#utility.yul\":3407:3426   */\n              add\n                /* \"#utility.yul\":3398:3404   */\n              dup5\n                /* \"#utility.yul\":3354:3427   */\n              tag_120\n              jump\t// in\n            tag_184:\n                /* \"#utility.yul\":2770:3434   */\n              swap7\n              swap6\n              pop\n              pop\n              pop\n              pop\n              pop\n              pop\n              jump\t// out\n                /* \"#utility.yul\":3440:3662   */\n            tag_40:\n                /* \"#utility.yul\":3533:3537   */\n              0x00\n                /* \"#utility.yul\":3571:3573   */\n              0x20\n                /* \"#utility.yul\":3560:3569   */\n              dup3\n                /* \"#utility.yul\":3556:3574   */\n              add\n                /* \"#utility.yul\":3548:3574   */\n              swap1\n              pop\n                /* \"#utility.yul\":3584:3655   */\n              tag_186\n                /* \"#utility.yul\":3652:3653   */\n              0x00\n                /* \"#utility.yul\":3641:3650   */\n              dup4\n                /* \"#utility.yul\":3637:3654   */\n              add\n                /* \"#utility.yul\":3628:3634   */\n              dup5\n                /* \"#utility.yul\":3584:3655   */\n              tag_120\n              jump\t// in\n            tag_186:\n                /* \"#utility.yul\":3440:3662   */\n              swap3\n              swap2\n              pop\n              pop\n              jump\t// out\n                /* \"#utility.yul\":3668:3767   */\n            tag_121:\n                /* \"#utility.yul\":3720:3726   */\n              0x00\n                /* \"#utility.yul\":3754:3759   */\n              dup2\n                /* \"#utility.yul\":3748:3760   */\n              mload\n                /* \"#utility.yul\":3738:3760   */\n              swap1\n              pop\n                /* \"#utility.yul\":3668:3767   */\n              swap2\n              swap1\n              pop\n              jump\t// out\n                /* \"#utility.yul\":3773:3942   */\n            tag_122:\n                /* \"#utility.yul\":3857:3868   */\n              0x00\n                /* \"#utility.yul\":3891:3897   */\n              dup3\n                /* \"#utility.yul\":3886:3889   */\n              dup3\n                /* \"#utility.yul\":3879:3898   */\n              mstore\n                /* \"#utility.yul\":3931:3935   */\n              0x20\n                /* \"#utility.yul\":3926:3929   */\n              dup3\n                /* \"#utility.yul\":3922:3936   */\n              add\n                /* \"#utility.yul\":3907:3936   */\n              swap1\n              pop\n                /* \"#utility.yul\":3773:3942   */\n              swap3\n              swap2\n              pop\n              pop\n              jump\t// out\n                /* \"#utility.yul\":3948:4255   */\n            tag_123:\n                /* \"#utility.yul\":4016:4017   */\n              0x00\n                /* \"#utility.yul\":4026:4139   */\n            tag_190:\n                /* \"#utility.yul\":4040:4046   */\n              dup4\n                /* \"#utility.yul\":4037:4038   */\n              dup2\n                /* \"#utility.yul\":4034:4047   */\n              lt\n                /* \"#utility.yul\":4026:4139   */\n              iszero\n              tag_192\n              jumpi\n                /* \"#utility.yul\":4125:4126   */\n              dup1\n                /* \"#utility.yul\":4120:4123   */\n              dup3\n                /* \"#utility.yul\":4116:4127   */\n              add\n                /* \"#utility.yul\":4110:4128   */\n              mload\n                /* \"#utility.yul\":4106:4107   */\n              dup2\n                /* \"#utility.yul\":4101:4104   */\n              dup5\n                /* \"#utility.yul\":4097:4108   */\n              add\n                /* \"#utility.yul\":4090:4129   */\n              mstore\n                /* \"#utility.yul\":4062:4064   */\n              0x20\n                /* \"#utility.yul\":4059:4060   */\n              dup2\n                /* \"#utility.yul\":4055:4065   */\n              add\n                /* \"#utility.yul\":4050:4065   */\n              swap1\n              pop\n                /* \"#utility.yul\":4026:4139   */\n              jump(tag_190)\n            tag_192:\n                /* \"#utility.yul\":4157:4163   */\n              dup4\n                /* \"#utility.yul\":4154:4155   */\n              dup2\n                /* \"#utility.yul\":4151:4164   */\n              gt\n                /* \"#utility.yul\":4148:4249   */\n              iszero\n              tag_193\n              jumpi\n                /* \"#utility.yul\":4237:4238   */\n              0x00\n                /* \"#utility.yul\":4228:4234   */\n              dup5\n                /* \"#utility.yul\":4223:4226   */\n              dup5\n                /* \"#utility.yul\":4219:4235   */\n              add\n                /* \"#utility.yul\":4212:4239   */\n              mstore\n                /* \"#utility.yul\":4148:4249   */\n            tag_193:\n                /* \"#utility.yul\":3997:4255   */\n              pop\n                /* \"#utility.yul\":3948:4255   */\n              pop\n              pop\n              pop\n              jump\t// out\n                /* \"#utility.yul\":4261:4363   */\n            tag_124:\n                /* \"#utility.yul\":4302:4308   */\n              0x00\n                /* \"#utility.yul\":4353:4355   */\n              0x1f\n                /* \"#utility.yul\":4349:4356   */\n              not\n                /* \"#utility.yul\":4344:4346   */\n              0x1f\n                /* \"#utility.yul\":4337:4342   */\n              dup4\n                /* \"#utility.yul\":4333:4347   */\n              add\n                /* \"#utility.yul\":4329:4357   */\n              and\n                /* \"#utility.yul\":4319:4357   */\n              swap1\n              pop\n                /* \"#utility.yul\":4261:4363   */\n              swap2\n              swap1\n              pop\n              jump\t// out\n                /* \"#utility.yul\":4369:4733   */\n            tag_125:\n                /* \"#utility.yul\":4457:4460   */\n              0x00\n                /* \"#utility.yul\":4485:4524   */\n              tag_196\n                /* \"#utility.yul\":4518:4523   */\n              dup3\n                /* \"#utility.yul\":4485:4524   */\n              tag_121\n              jump\t// in\n            tag_196:\n                /* \"#utility.yul\":4540:4611   */\n              tag_197\n                /* \"#utility.yul\":4604:4610   */\n              dup2\n                /* \"#utility.yul\":4599:4602   */\n              dup6\n                /* \"#utility.yul\":4540:4611   */\n              tag_122\n              jump\t// in\n            tag_197:\n                /* \"#utility.yul\":4533:4611   */\n              swap4\n              pop\n                /* \"#utility.yul\":4620:4672   */\n              tag_198\n                /* \"#utility.yul\":4665:4671   */\n              dup2\n                /* \"#utility.yul\":4660:4663   */\n              dup6\n                /* \"#utility.yul\":4653:4657   */\n              0x20\n                /* \"#utility.yul\":4646:4651   */\n              dup7\n                /* \"#utility.yul\":4642:4658   */\n              add\n                /* \"#utility.yul\":4620:4672   */\n              tag_123\n              jump\t// in\n            tag_198:\n                /* \"#utility.yul\":4697:4726   */\n              tag_199\n                /* \"#utility.yul\":4719:4725   */\n              dup2\n                /* \"#utility.yul\":4697:4726   */\n              tag_124\n              jump\t// in\n            tag_199:\n                /* \"#utility.yul\":4692:4695   */\n              dup5\n                /* \"#utility.yul\":4688:4727   */\n              add\n                /* \"#utility.yul\":4681:4727   */\n              swap2\n              pop\n                /* \"#utility.yul\":4461:4733   */\n              pop\n                /* \"#utility.yul\":4369:4733   */\n              swap3\n              swap2\n              pop\n              pop\n              jump\t// out\n                /* \"#utility.yul\":4739:4843   */\n            tag_126:\n                /* \"#utility.yul\":4784:4791   */\n              0x00\n                /* \"#utility.yul\":4813:4837   */\n              tag_201\n                /* \"#utility.yul\":4831:4836   */\n              dup3\n                /* \"#utility.yul\":4813:4837   */\n              tag_113\n              jump\t// in\n            tag_201:\n                /* \"#utility.yul\":4802:4837   */\n              swap1\n              pop\n                /* \"#utility.yul\":4739:4843   */\n              swap2\n              swap1\n              pop\n              jump\t// out\n                /* \"#utility.yul\":4849:4991   */\n            tag_127:\n                /* \"#utility.yul\":4952:4984   */\n              tag_203\n                /* \"#utility.yul\":4978:4983   */\n              dup2\n                /* \"#utility.yul\":4952:4984   */\n              tag_126\n              jump\t// in\n            tag_203:\n                /* \"#utility.yul\":4947:4950   */\n              dup3\n                /* \"#utility.yul\":4940:4985   */\n              mstore\n                /* \"#utility.yul\":4849:4991   */\n              pop\n              pop\n              jump\t// out\n                /* \"#utility.yul\":4997:5772   */\n            tag_46:\n                /* \"#utility.yul\":5232:5236   */\n              0x00\n                /* \"#utility.yul\":5270:5273   */\n              0xa0\n                /* \"#utility.yul\":5259:5268   */\n              dup3\n                /* \"#utility.yul\":5255:5274   */\n              add\n                /* \"#utility.yul\":5247:5274   */\n              swap1\n              pop\n                /* \"#utility.yul\":5320:5329   */\n              dup2\n                /* \"#utility.yul\":5314:5318   */\n              dup2\n                /* \"#utility.yul\":5310:5330   */\n              sub\n                /* \"#utility.yul\":5306:5307   */\n              0x00\n                /* \"#utility.yul\":5295:5304   */\n              dup4\n                /* \"#utility.yul\":5291:5308   */\n              add\n                /* \"#utility.yul\":5284:5331   */\n              mstore\n                /* \"#utility.yul\":5348:5426   */\n              tag_205\n                /* \"#utility.yul\":5421:5425   */\n              dup2\n                /* \"#utility.yul\":5412:5418   */\n              dup9\n                /* \"#utility.yul\":5348:5426   */\n              tag_125\n              jump\t// in\n            tag_205:\n                /* \"#utility.yul\":5340:5426   */\n              swap1\n              pop\n                /* \"#utility.yul\":5436:5508   */\n              tag_206\n                /* \"#utility.yul\":5504:5506   */\n              0x20\n                /* \"#utility.yul\":5493:5502   */\n              dup4\n                /* \"#utility.yul\":5489:5507   */\n              add\n                /* \"#utility.yul\":5480:5486   */\n              dup8\n                /* \"#utility.yul\":5436:5508   */\n              tag_119\n              jump\t// in\n            tag_206:\n                /* \"#utility.yul\":5518:5606   */\n              tag_207\n                /* \"#utility.yul\":5602:5604   */\n              0x40\n                /* \"#utility.yul\":5591:5600   */\n              dup4\n                /* \"#utility.yul\":5587:5605   */\n              add\n                /* \"#utility.yul\":5578:5584   */\n              dup7\n                /* \"#utility.yul\":5518:5606   */\n              tag_127\n              jump\t// in\n            tag_207:\n                /* \"#utility.yul\":5616:5682   */\n              tag_208\n                /* \"#utility.yul\":5678:5680   */\n              0x60\n                /* \"#utility.yul\":5667:5676   */\n              dup4\n                /* \"#utility.yul\":5663:5681   */\n              add\n                /* \"#utility.yul\":5654:5660   */\n              dup6\n                /* \"#utility.yul\":5616:5682   */\n              tag_118\n              jump\t// in\n            tag_208:\n                /* \"#utility.yul\":5692:5765   */\n              tag_209\n                /* \"#utility.yul\":5760:5763   */\n              0x80\n                /* \"#utility.yul\":5749:5758   */\n              dup4\n                /* \"#utility.yul\":5745:5764   */\n              add\n                /* \"#utility.yul\":5736:5742   */\n              dup5\n                /* \"#utility.yul\":5692:5765   */\n              tag_119\n              jump\t// in\n            tag_209:\n                /* \"#utility.yul\":4997:5772   */\n              swap7\n              swap6\n              pop\n              pop\n              pop\n              pop\n              pop\n              pop\n              jump\t// out\n                /* \"#utility.yul\":5778:5895   */\n            tag_128:\n                /* \"#utility.yul\":5887:5888   */\n              0x00\n                /* \"#utility.yul\":5884:5885   */\n              dup1\n                /* \"#utility.yul\":5877:5889   */\n              revert\n                /* \"#utility.yul\":5901:6018   */\n            tag_129:\n                /* \"#utility.yul\":6010:6011   */\n              0x00\n                /* \"#utility.yul\":6007:6008   */\n              dup1\n                /* \"#utility.yul\":6000:6012   */\n              revert\n                /* \"#utility.yul\":6024:6204   */\n            tag_130:\n                /* \"#utility.yul\":6072:6149   */\n              0x4e487b7100000000000000000000000000000000000000000000000000000000\n                /* \"#utility.yul\":6069:6070   */\n              0x00\n                /* \"#utility.yul\":6062:6150   */\n              mstore\n                /* \"#utility.yul\":6169:6173   */\n              0x41\n                /* \"#utility.yul\":6166:6167   */\n              0x04\n                /* \"#utility.yul\":6159:6174   */\n              mstore\n                /* \"#utility.yul\":6193:6197   */\n              0x24\n                /* \"#utility.yul\":6190:6191   */\n              0x00\n                /* \"#utility.yul\":6183:6198   */\n              revert\n                /* \"#utility.yul\":6210:6491   */\n            tag_131:\n                /* \"#utility.yul\":6293:6320   */\n              tag_214\n                /* \"#utility.yul\":6315:6319   */\n              dup3\n                /* \"#utility.yul\":6293:6320   */\n              tag_124\n              jump\t// in\n            tag_214:\n                /* \"#utility.yul\":6285:6291   */\n              dup2\n                /* \"#utility.yul\":6281:6321   */\n              add\n                /* \"#utility.yul\":6423:6429   */\n              dup2\n                /* \"#utility.yul\":6411:6421   */\n              dup2\n                /* \"#utility.yul\":6408:6430   */\n              lt\n                /* \"#utility.yul\":6387:6405   */\n              0xffffffffffffffff\n                /* \"#utility.yul\":6375:6385   */\n              dup3\n                /* \"#utility.yul\":6372:6406   */\n              gt\n                /* \"#utility.yul\":6369:6431   */\n              or\n                /* \"#utility.yul\":6366:6454   */\n              iszero\n              tag_215\n              jumpi\n                /* \"#utility.yul\":6434:6452   */\n              tag_216\n              tag_130\n              jump\t// in\n            tag_216:\n                /* \"#utility.yul\":6366:6454   */\n            tag_215:\n                /* \"#utility.yul\":6474:6484   */\n              dup1\n                /* \"#utility.yul\":6470:6472   */\n              0x40\n                /* \"#utility.yul\":6463:6485   */\n              mstore\n                /* \"#utility.yul\":6253:6491   */\n              pop\n                /* \"#utility.yul\":6210:6491   */\n              pop\n              pop\n              jump\t// out\n                /* \"#utility.yul\":6497:6626   */\n            tag_132:\n                /* \"#utility.yul\":6531:6537   */\n              0x00\n                /* \"#utility.yul\":6558:6578   */\n              tag_218\n              tag_107\n              jump\t// in\n            tag_218:\n                /* \"#utility.yul\":6548:6578   */\n              swap1\n              pop\n                /* \"#utility.yul\":6587:6620   */\n              tag_219\n                /* \"#utility.yul\":6615:6619   */\n              dup3\n                /* \"#utility.yul\":6607:6613   */\n              dup3\n                /* \"#utility.yul\":6587:6620   */\n              tag_131\n              jump\t// in\n            tag_219:\n                /* \"#utility.yul\":6497:6626   */\n              swap2\n              swap1\n              pop\n              jump\t// out\n                /* \"#utility.yul\":6632:6940   */\n            tag_133:\n                /* \"#utility.yul\":6694:6698   */\n              0x00\n                /* \"#utility.yul\":6784:6802   */\n              0xffffffffffffffff\n                /* \"#utility.yul\":6776:6782   */\n              dup3\n                /* \"#utility.yul\":6773:6803   */\n              gt\n                /* \"#utility.yul\":6770:6826   */\n              iszero\n              tag_221\n              jumpi\n                /* \"#utility.yul\":6806:6824   */\n              tag_222\n              tag_130\n              jump\t// in\n            tag_222:\n                /* \"#utility.yul\":6770:6826   */\n            tag_221:\n                /* \"#utility.yul\":6844:6873   */\n              tag_223\n                /* \"#utility.yul\":6866:6872   */\n              dup3\n                /* \"#utility.yul\":6844:6873   */\n              tag_124\n              jump\t// in\n            tag_223:\n                /* \"#utility.yul\":6836:6873   */\n              swap1\n              pop\n                /* \"#utility.yul\":6928:6932   */\n              0x20\n                /* \"#utility.yul\":6922:6926   */\n              dup2\n                /* \"#utility.yul\":6918:6933   */\n              add\n                /* \"#utility.yul\":6910:6933   */\n              swap1\n              pop\n                /* \"#utility.yul\":6632:6940   */\n              swap2\n              swap1\n              pop\n              jump\t// out\n                /* \"#utility.yul\":6946:7100   */\n            tag_134:\n                /* \"#utility.yul\":7030:7036   */\n              dup3\n                /* \"#utility.yul\":7025:7028   */\n              dup2\n                /* \"#utility.yul\":7020:7023   */\n              dup4\n                /* \"#utility.yul\":7007:7037   */\n              calldatacopy\n                /* \"#utility.yul\":7092:7093   */\n              0x00\n                /* \"#utility.yul\":7083:7089   */\n              dup4\n                /* \"#utility.yul\":7078:7081   */\n              dup4\n                /* \"#utility.yul\":7074:7090   */\n              add\n                /* \"#utility.yul\":7067:7094   */\n              mstore\n                /* \"#utility.yul\":6946:7100   */\n              pop\n              pop\n              pop\n              jump\t// out\n                /* \"#utility.yul\":7106:7518   */\n            tag_135:\n                /* \"#utility.yul\":7184:7189   */\n              0x00\n                /* \"#utility.yul\":7209:7275   */\n              tag_226\n                /* \"#utility.yul\":7225:7274   */\n              tag_227\n                /* \"#utility.yul\":7267:7273   */\n              dup5\n                /* \"#utility.yul\":7225:7274   */\n              tag_133\n              jump\t// in\n            tag_227:\n                /* \"#utility.yul\":7209:7275   */\n              tag_132\n              jump\t// in\n            tag_226:\n                /* \"#utility.yul\":7200:7275   */\n              swap1\n              pop\n                /* \"#utility.yul\":7298:7304   */\n              dup3\n                /* \"#utility.yul\":7291:7296   */\n              dup2\n                /* \"#utility.yul\":7284:7305   */\n              mstore\n                /* \"#utility.yul\":7336:7340   */\n              0x20\n                /* \"#utility.yul\":7329:7334   */\n              dup2\n                /* \"#utility.yul\":7325:7341   */\n              add\n                /* \"#utility.yul\":7374:7377   */\n              dup5\n                /* \"#utility.yul\":7365:7371   */\n              dup5\n                /* \"#utility.yul\":7360:7363   */\n              dup5\n                /* \"#utility.yul\":7356:7372   */\n              add\n                /* \"#utility.yul\":7353:7378   */\n              gt\n                /* \"#utility.yul\":7350:7462   */\n              iszero\n              tag_228\n              jumpi\n                /* \"#utility.yul\":7381:7460   */\n              tag_229\n              tag_129\n              jump\t// in\n            tag_229:\n                /* \"#utility.yul\":7350:7462   */\n            tag_228:\n                /* \"#utility.yul\":7471:7512   */\n              tag_230\n                /* \"#utility.yul\":7505:7511   */\n              dup5\n                /* \"#utility.yul\":7500:7503   */\n              dup3\n                /* \"#utility.yul\":7495:7498   */\n              dup6\n                /* \"#utility.yul\":7471:7512   */\n              tag_134\n              jump\t// in\n            tag_230:\n                /* \"#utility.yul\":7190:7518   */\n              pop\n                /* \"#utility.yul\":7106:7518   */\n              swap4\n              swap3\n              pop\n              pop\n              pop\n              jump\t// out\n                /* \"#utility.yul\":7538:7878   */\n            tag_136:\n                /* \"#utility.yul\":7594:7599   */\n              0x00\n                /* \"#utility.yul\":7643:7646   */\n              dup3\n                /* \"#utility.yul\":7636:7640   */\n              0x1f\n                /* \"#utility.yul\":7628:7634   */\n              dup4\n                /* \"#utility.yul\":7624:7641   */\n              add\n                /* \"#utility.yul\":7620:7647   */\n              slt\n                /* \"#utility.yul\":7610:7732   */\n              tag_232\n              jumpi\n                /* \"#utility.yul\":7651:7730   */\n              tag_233\n              tag_128\n              jump\t// in\n            tag_233:\n                /* \"#utility.yul\":7610:7732   */\n            tag_232:\n                /* \"#utility.yul\":7768:7774   */\n              dup2\n                /* \"#utility.yul\":7755:7775   */\n              calldataload\n                /* \"#utility.yul\":7793:7872   */\n              tag_234\n                /* \"#utility.yul\":7868:7871   */\n              dup5\n                /* \"#utility.yul\":7860:7866   */\n              dup3\n                /* \"#utility.yul\":7853:7857   */\n              0x20\n                /* \"#utility.yul\":7845:7851   */\n              dup7\n                /* \"#utility.yul\":7841:7858   */\n              add\n                /* \"#utility.yul\":7793:7872   */\n              tag_135\n              jump\t// in\n            tag_234:\n                /* \"#utility.yul\":7784:7872   */\n              swap2\n              pop\n                /* \"#utility.yul\":7600:7878   */\n              pop\n                /* \"#utility.yul\":7538:7878   */\n              swap3\n              swap2\n              pop\n              pop\n              jump\t// out\n                /* \"#utility.yul\":7884:8022   */\n            tag_137:\n                /* \"#utility.yul\":7965:7997   */\n              tag_236\n                /* \"#utility.yul\":7991:7996   */\n              dup2\n                /* \"#utility.yul\":7965:7997   */\n              tag_126\n              jump\t// in\n            tag_236:\n                /* \"#utility.yul\":7958:7963   */\n              dup2\n                /* \"#utility.yul\":7955:7998   */\n              eq\n                /* \"#utility.yul\":7945:8016   */\n              tag_237\n              jumpi\n                /* \"#utility.yul\":8012:8013   */\n              0x00\n                /* \"#utility.yul\":8009:8010   */\n              dup1\n                /* \"#utility.yul\":8002:8014   */\n              revert\n                /* \"#utility.yul\":7945:8016   */\n            tag_237:\n                /* \"#utility.yul\":7884:8022   */\n              pop\n              jump\t// out\n                /* \"#utility.yul\":8028:8183   */\n            tag_138:\n                /* \"#utility.yul\":8082:8087   */\n              0x00\n                /* \"#utility.yul\":8120:8126   */\n              dup2\n                /* \"#utility.yul\":8107:8127   */\n              calldataload\n                /* \"#utility.yul\":8098:8127   */\n              swap1\n              pop\n                /* \"#utility.yul\":8136:8177   */\n              tag_239\n                /* \"#utility.yul\":8171:8176   */\n              dup2\n                /* \"#utility.yul\":8136:8177   */\n              tag_137\n              jump\t// in\n            tag_239:\n                /* \"#utility.yul\":8028:8183   */\n              swap3\n              swap2\n              pop\n              pop\n              jump\t// out\n                /* \"#utility.yul\":8189:9004   */\n            tag_54:\n                /* \"#utility.yul\":8284:8290   */\n              0x00\n                /* \"#utility.yul\":8292:8298   */\n              dup1\n                /* \"#utility.yul\":8300:8306   */\n              0x00\n                /* \"#utility.yul\":8349:8351   */\n              0x60\n                /* \"#utility.yul\":8337:8346   */\n              dup5\n                /* \"#utility.yul\":8328:8335   */\n              dup7\n                /* \"#utility.yul\":8324:8347   */\n              sub\n                /* \"#utility.yul\":8320:8352   */\n              slt\n                /* \"#utility.yul\":8317:8436   */\n              iszero\n              tag_241\n              jumpi\n                /* \"#utility.yul\":8355:8434   */\n              tag_242\n              tag_108\n              jump\t// in\n            tag_242:\n                /* \"#utility.yul\":8317:8436   */\n            tag_241:\n                /* \"#utility.yul\":8503:8504   */\n              0x00\n                /* \"#utility.yul\":8492:8501   */\n              dup5\n                /* \"#utility.yul\":8488:8505   */\n              add\n                /* \"#utility.yul\":8475:8506   */\n              calldataload\n                /* \"#utility.yul\":8533:8551   */\n              0xffffffffffffffff\n                /* \"#utility.yul\":8525:8531   */\n              dup2\n                /* \"#utility.yul\":8522:8552   */\n              gt\n                /* \"#utility.yul\":8519:8636   */\n              iszero\n              tag_243\n              jumpi\n                /* \"#utility.yul\":8555:8634   */\n              tag_244\n              tag_109\n              jump\t// in\n            tag_244:\n                /* \"#utility.yul\":8519:8636   */\n            tag_243:\n                /* \"#utility.yul\":8660:8723   */\n              tag_245\n                /* \"#utility.yul\":8715:8722   */\n              dup7\n                /* \"#utility.yul\":8706:8712   */\n              dup3\n                /* \"#utility.yul\":8695:8704   */\n              dup8\n                /* \"#utility.yul\":8691:8713   */\n              add\n                /* \"#utility.yul\":8660:8723   */\n              tag_136\n              jump\t// in\n            tag_245:\n                /* \"#utility.yul\":8650:8723   */\n              swap4\n              pop\n                /* \"#utility.yul\":8446:8733   */\n              pop\n                /* \"#utility.yul\":8772:8774   */\n              0x20\n                /* \"#utility.yul\":8798:8851   */\n              tag_246\n                /* \"#utility.yul\":8843:8850   */\n              dup7\n                /* \"#utility.yul\":8834:8840   */\n              dup3\n                /* \"#utility.yul\":8823:8832   */\n              dup8\n                /* \"#utility.yul\":8819:8841   */\n              add\n                /* \"#utility.yul\":8798:8851   */\n              tag_112\n              jump\t// in\n            tag_246:\n                /* \"#utility.yul\":8788:8851   */\n              swap3\n              pop\n                /* \"#utility.yul\":8743:8861   */\n              pop\n                /* \"#utility.yul\":8900:8902   */\n              0x40\n                /* \"#utility.yul\":8926:8987   */\n              tag_247\n                /* \"#utility.yul\":8979:8986   */\n              dup7\n                /* \"#utility.yul\":8970:8976   */\n              dup3\n                /* \"#utility.yul\":8959:8968   */\n              dup8\n                /* \"#utility.yul\":8955:8977   */\n              add\n                /* \"#utility.yul\":8926:8987   */\n              tag_138\n              jump\t// in\n            tag_247:\n                /* \"#utility.yul\":8916:8987   */\n              swap2\n              pop\n                /* \"#utility.yul\":8871:8997   */\n              pop\n                /* \"#utility.yul\":8189:9004   */\n              swap3\n              pop\n              swap3\n              pop\n              swap3\n              jump\t// out\n                /* \"#utility.yul\":9010:9190   */\n            tag_139:\n                /* \"#utility.yul\":9058:9135   */\n              0x4e487b7100000000000000000000000000000000000000000000000000000000\n                /* \"#utility.yul\":9055:9056   */\n              0x00\n                /* \"#utility.yul\":9048:9136   */\n              mstore\n                /* \"#utility.yul\":9155:9159   */\n              0x12\n                /* \"#utility.yul\":9152:9153   */\n              0x04\n                /* \"#utility.yul\":9145:9160   */\n              mstore\n                /* \"#utility.yul\":9179:9183   */\n              0x24\n                /* \"#utility.yul\":9176:9177   */\n              0x00\n                /* \"#utility.yul\":9169:9184   */\n              revert\n                /* \"#utility.yul\":9196:9376   */\n            tag_140:\n                /* \"#utility.yul\":9244:9321   */\n              0x4e487b7100000000000000000000000000000000000000000000000000000000\n                /* \"#utility.yul\":9241:9242   */\n              0x00\n                /* \"#utility.yul\":9234:9322   */\n              mstore\n                /* \"#utility.yul\":9341:9345   */\n              0x11\n                /* \"#utility.yul\":9338:9339   */\n              0x04\n                /* \"#utility.yul\":9331:9346   */\n              mstore\n                /* \"#utility.yul\":9365:9369   */\n              0x24\n                /* \"#utility.yul\":9362:9363   */\n              0x00\n                /* \"#utility.yul\":9355:9370   */\n              revert\n                /* \"#utility.yul\":9382:9567   */\n            tag_70:\n                /* \"#utility.yul\":9422:9423   */\n              0x00\n                /* \"#utility.yul\":9439:9459   */\n              tag_251\n                /* \"#utility.yul\":9457:9458   */\n              dup3\n                /* \"#utility.yul\":9439:9459   */\n              tag_110\n              jump\t// in\n            tag_251:\n                /* \"#utility.yul\":9434:9459   */\n              swap2\n              pop\n                /* \"#utility.yul\":9473:9493   */\n              tag_252\n                /* \"#utility.yul\":9491:9492   */\n              dup4\n                /* \"#utility.yul\":9473:9493   */\n              tag_110\n              jump\t// in\n            tag_252:\n                /* \"#utility.yul\":9468:9493   */\n              swap3\n              pop\n                /* \"#utility.yul\":9512:9513   */\n              dup3\n                /* \"#utility.yul\":9502:9537   */\n              tag_253\n              jumpi\n                /* \"#utility.yul\":9517:9535   */\n              tag_254\n              tag_139\n              jump\t// in\n            tag_254:\n                /* \"#utility.yul\":9502:9537   */\n            tag_253:\n                /* \"#utility.yul\":9559:9560   */\n              dup3\n                /* \"#utility.yul\":9556:9557   */\n              dup3\n                /* \"#utility.yul\":9552:9561   */\n              div\n                /* \"#utility.yul\":9547:9561   */\n              swap1\n              pop\n                /* \"#utility.yul\":9382:9567   */\n              swap3\n              swap2\n              pop\n              pop\n              jump\t// out\n                /* \"#utility.yul\":9573:9753   */\n            tag_141:\n                /* \"#utility.yul\":9621:9698   */\n              0x4e487b7100000000000000000000000000000000000000000000000000000000\n                /* \"#utility.yul\":9618:9619   */\n              0x00\n                /* \"#utility.yul\":9611:9699   */\n              mstore\n                /* \"#utility.yul\":9718:9722   */\n              0x22\n                /* \"#utility.yul\":9715:9716   */\n              0x04\n                /* \"#utility.yul\":9708:9723   */\n              mstore\n                /* \"#utility.yul\":9742:9746   */\n              0x24\n                /* \"#utility.yul\":9739:9740   */\n              0x00\n                /* \"#utility.yul\":9732:9747   */\n              revert\n                /* \"#utility.yul\":9759:10079   */\n            tag_78:\n                /* \"#utility.yul\":9803:9809   */\n              0x00\n                /* \"#utility.yul\":9840:9841   */\n              0x02\n                /* \"#utility.yul\":9834:9838   */\n              dup3\n                /* \"#utility.yul\":9830:9842   */\n              div\n                /* \"#utility.yul\":9820:9842   */\n              swap1\n              pop\n                /* \"#utility.yul\":9887:9888   */\n              0x01\n                /* \"#utility.yul\":9881:9885   */\n              dup3\n                /* \"#utility.yul\":9877:9889   */\n              and\n                /* \"#utility.yul\":9908:9926   */\n              dup1\n                /* \"#utility.yul\":9898:9979   */\n              tag_257\n              jumpi\n                /* \"#utility.yul\":9964:9968   */\n              0x7f\n                /* \"#utility.yul\":9956:9962   */\n              dup3\n                /* \"#utility.yul\":9952:9969   */\n              and\n                /* \"#utility.yul\":9942:9969   */\n              swap2\n              pop\n                /* \"#utility.yul\":9898:9979   */\n            tag_257:\n                /* \"#utility.yul\":10026:10028   */\n              0x20\n                /* \"#utility.yul\":10018:10024   */\n              dup3\n                /* \"#utility.yul\":10015:10029   */\n              lt\n                /* \"#utility.yul\":9995:10013   */\n              dup2\n                /* \"#utility.yul\":9992:10030   */\n              eq\n                /* \"#utility.yul\":9989:10073   */\n              iszero\n              tag_258\n              jumpi\n                /* \"#utility.yul\":10045:10063   */\n              tag_259\n              tag_141\n              jump\t// in\n            tag_259:\n                /* \"#utility.yul\":9989:10073   */\n            tag_258:\n                /* \"#utility.yul\":9810:10079   */\n              pop\n                /* \"#utility.yul\":9759:10079   */\n              swap2\n              swap1\n              pop\n              jump\t// out\n                /* \"#utility.yul\":10085:10318   */\n            tag_87:\n                /* \"#utility.yul\":10124:10127   */\n              0x00\n                /* \"#utility.yul\":10147:10171   */\n              tag_261\n                /* \"#utility.yul\":10165:10170   */\n              dup3\n                /* \"#utility.yul\":10147:10171   */\n              tag_110\n              jump\t// in\n            tag_261:\n                /* \"#utility.yul\":10138:10171   */\n              swap2\n              pop\n                /* \"#utility.yul\":10193:10259   */\n              0xffffffffffffffffffffffffffffffffffffffffffffffffffffffffffffffff\n                /* \"#utility.yul\":10186:10191   */\n              dup3\n                /* \"#utility.yul\":10183:10260   */\n              eq\n                /* \"#utility.yul\":10180:10283   */\n              iszero\n              tag_262\n              jumpi\n                /* \"#utility.yul\":10263:10281   */\n              tag_263\n              tag_140\n              jump\t// in\n            tag_263:\n                /* \"#utility.yul\":10180:10283   */\n            tag_262:\n                /* \"#utility.yul\":10310:10311   */\n              0x01\n                /* \"#utility.yul\":10303:10308   */\n              dup3\n                /* \"#utility.yul\":10299:10312   */\n              add\n                /* \"#utility.yul\":10292:10312   */\n              swap1\n              pop\n                /* \"#utility.yul\":10085:10318   */\n              swap2\n              swap1\n              pop\n              jump\t// out\n\n            auxdata: 0xa26469706673582212208a16a59553d27470284f113e6301493e0b6443bb846efe94074ea82c569bfdc764736f6c63430008090033\n        }\n    }\n\n    auxdata: 0xa2646970667358221220beb10f8a604ec649cef465218c75c24a9fcd2e7ccaa2567b87020e3adf28e59964736f6c63430008090033\n}\n","bytecode":{"linkReferences":{},"object":"608060405234801561001057600080fd5b50611510806100206000396000f3fe608060405234801561001057600080fd5b50600436106100415760003560e01c8063339d50a5146100465780634acb9d4f14610076578063a3303a7514610094575b600080fd5b610060600480360381019061005b9190610266565b6100b0565b60405161006d9190610312565b60405180910390f35b61007e6100ef565b60405161008b91906103eb565b60405180910390f35b6100ae60048036038101906100a99190610266565b61017d565b005b600081815481106100c057600080fd5b906000526020600020016000915054906101000a900473ffffffffffffffffffffffffffffffffffffffff1681565b6060600080548060200260200160405190810160405280929190818152602001828054801561017357602002820191906000526020600020905b8160009054906101000a900473ffffffffffffffffffffffffffffffffffffffff1673ffffffffffffffffffffffffffffffffffffffff1681526020019060010190808311610129575b5050505050905090565b6000813360405161018d9061021e565b61019892919061043d565b604051809103906000f0801580156101b4573d6000803e3d6000fd5b5090506000819080600181540180825580915050600190039060005260206000200160009091909190916101000a81548173ffffffffffffffffffffffffffffffffffffffff021916908373ffffffffffffffffffffffffffffffffffffffff1602179055505050565b6110748061046783390190565b600080fd5b6000819050919050565b61024381610230565b811461024e57600080fd5b50565b6000813590506102608161023a565b92915050565b60006020828403121561027c5761027b61022b565b5b600061028a84828501610251565b91505092915050565b600073ffffffffffffffffffffffffffffffffffffffff82169050919050565b6000819050919050565b60006102d86102d36102ce84610293565b6102b3565b610293565b9050919050565b60006102ea826102bd565b9050919050565b60006102fc826102df565b9050919050565b61030c816102f1565b82525050565b60006020820190506103276000830184610303565b92915050565b600081519050919050565b600082825260208201905092915050565b6000819050602082019050919050565b610362816102f1565b82525050565b60006103748383610359565b60208301905092915050565b6000602082019050919050565b60006103988261032d565b6103a28185610338565b93506103ad83610349565b8060005b838110156103de5781516103c58882610368565b97506103d083610380565b9250506001810190506103b1565b5085935050505092915050565b60006020820190508181036000830152610405818461038d565b905092915050565b61041681610230565b82525050565b600061042782610293565b9050919050565b6104378161041c565b82525050565b6000604082019050610452600083018561040d565b61045f602083018461042e565b939250505056fe60806040523480156200001157600080fd5b50604051620010743803806200107483398181016040528101906200003791906200012c565b80600260006101000a81548173ffffffffffffffffffffffffffffffffffffffff021916908373ffffffffffffffffffffffffffffffffffffffff16021790555081600381905550505062000173565b600080fd5b6000819050919050565b620000a1816200008c565b8114620000ad57600080fd5b50565b600081519050620000c18162000096565b92915050565b600073ffffffffffffffffffffffffffffffffffffffff82169050919050565b6000620000f482620000c7565b9050919050565b6200010681620000e7565b81146200011257600080fd5b50565b6000815190506200012681620000fb565b92915050565b6000806040838503121562000146576200014562000087565b5b60006200015685828601620000b0565b9250506020620001698582860162000115565b9150509250929050565b610ef180620001836000396000f3fe60806040526004361061009c5760003560e01c806381d12c581161006457806381d12c581461018c57806382fde093146101cd5780638a9cfd55146101f8578063937e09b114610221578063d7bb99ba1461024c578063d7d1bbdb146102565761009c565b806303441006146100a15780630a144391146100ca5780633410452a146101075780634051ddac14610132578063481c6a7514610161575b600080fd5b3480156100ad57600080fd5b506100c860048036038101906100c39190610909565b61027f565b005b3480156100d657600080fd5b506100f160048036038101906100ec9190610994565b6103ba565b6040516100fe91906109dc565b60405180910390f35b34801561011357600080fd5b5061011c6103da565b6040516101299190610a06565b60405180910390f35b34801561013e57600080fd5b506101476103e3565b604051610158959493929190610a30565b60405180910390f35b34801561016d57600080fd5b50610176610429565b6040516101839190610a83565b60405180910390f35b34801561019857600080fd5b506101b360048036038101906101ae9190610909565b61044f565b6040516101c4959493929190610b58565b60405180910390f35b3480156101d957600080fd5b506101e261053a565b6040516101ef9190610a06565b60405180910390f35b34801561020457600080fd5b5061021f600480360381019061021a9190610d13565b610540565b005b34801561022d57600080fd5b50610236610658565b6040516102439190610a06565b60405180910390f35b61025461065e565b005b34801561026257600080fd5b5061027d60048036038101906102789190610909565b6106de565b005b600260009054906101000a900473ffffffffffffffffffffffffffffffffffffffff1673ffffffffffffffffffffffffffffffffffffffff163373ffffffffffffffffffffffffffffffffffffffff16146102d957600080fd5b600060016000838152602001908152602001600020905060026005546102ff9190610de0565b81600301541161030e57600080fd5b8060020160149054906101000a900460ff161561032a57600080fd5b8060020160009054906101000a900473ffffffffffffffffffffffffffffffffffffffff1673ffffffffffffffffffffffffffffffffffffffff166108fc82600101549081150290604051600060405180830381858888f19350505050158015610398573d6000803e3d6000fd5b5060018160020160146101000a81548160ff0219169083151502179055505050565b60046020528060005260406000206000915054906101000a900460ff1681565b60008054905090565b600080600080600060035447600054600554600260009054906101000a900473ffffffffffffffffffffffffffffffffffffffff16945094509450945094509091929394565b600260009054906101000a900473ffffffffffffffffffffffffffffffffffffffff1681565b600160205280600052604060002060009150905080600001805461047290610e40565b80601f016020809104026020016040519081016040528092919081815260200182805461049e90610e40565b80156104eb5780601f106104c0576101008083540402835291602001916104eb565b820191906000526020600020905b8154815290600101906020018083116104ce57829003601f168201915b5050505050908060010154908060020160009054906101000a900473ffffffffffffffffffffffffffffffffffffffff16908060020160149054906101000a900460ff16908060030154905085565b60055481565b600260009054906101000a900473ffffffffffffffffffffffffffffffffffffffff1673ffffffffffffffffffffffffffffffffffffffff163373ffffffffffffffffffffffffffffffffffffffff161461059a57600080fd5b6000600160008060008154809291906105b290610e72565b9190505581526020019081526020016000209050838160000190805190602001906105de92919061081c565b50828160010181905550818160020160006101000a81548173ffffffffffffffffffffffffffffffffffffffff021916908373ffffffffffffffffffffffffffffffffffffffff16021790555060008160020160146101000a81548160ff0219169083151502179055506000816003018190555050505050565b60035481565b600354341161066c57600080fd5b6001600460003373ffffffffffffffffffffffffffffffffffffffff1673ffffffffffffffffffffffffffffffffffffffff16815260200190815260200160002060006101000a81548160ff021916908315150217905550600560008154809291906106d790610e72565b9190505550565b6000600160008381526020019081526020016000209050600460003373ffffffffffffffffffffffffffffffffffffffff1673ffffffffffffffffffffffffffffffffffffffff16815260200190815260200160002060009054906101000a900460ff1661074b57600080fd5b8060040160003373ffffffffffffffffffffffffffffffffffffffff1673ffffffffffffffffffffffffffffffffffffffff16815260200190815260200160002060009054906101000a900460ff16156107a457600080fd5b60018160040160003373ffffffffffffffffffffffffffffffffffffffff1673ffffffffffffffffffffffffffffffffffffffff16815260200190815260200160002060006101000a81548160ff02191690831515021790555080600301600081548092919061081390610e72565b91905055505050565b82805461082890610e40565b90600052602060002090601f01602090048101928261084a5760008555610891565b82601f1061086357805160ff1916838001178555610891565b82800160010185558215610891579182015b82811115610890578251825591602001919060010190610875565b5b50905061089e91906108a2565b5090565b5b808211156108bb5760008160009055506001016108a3565b5090565b6000604051905090565b600080fd5b600080fd5b6000819050919050565b6108e6816108d3565b81146108f157600080fd5b50565b600081359050610903816108dd565b92915050565b60006020828403121561091f5761091e6108c9565b5b600061092d848285016108f4565b91505092915050565b600073ffffffffffffffffffffffffffffffffffffffff82169050919050565b600061096182610936565b9050919050565b61097181610956565b811461097c57600080fd5b50565b60008135905061098e81610968565b92915050565b6000602082840312156109aa576109a96108c9565b5b60006109b88482850161097f565b91505092915050565b60008115159050919050565b6109d6816109c1565b82525050565b60006020820190506109f160008301846109cd565b92915050565b610a00816108d3565b82525050565b6000602082019050610a1b60008301846109f7565b92915050565b610a2a81610956565b82525050565b600060a082019050610a4560008301886109f7565b610a5260208301876109f7565b610a5f60408301866109f7565b610a6c60608301856109f7565b610a796080830184610a21565b9695505050505050565b6000602082019050610a986000830184610a21565b92915050565b600081519050919050565b600082825260208201905092915050565b60005b83811015610ad8578082015181840152602081019050610abd565b83811115610ae7576000848401525b50505050565b6000601f19601f8301169050919050565b6000610b0982610a9e565b610b138185610aa9565b9350610b23818560208601610aba565b610b2c81610aed565b840191505092915050565b6000610b4282610936565b9050919050565b610b5281610b37565b82525050565b600060a0820190508181036000830152610b728188610afe565b9050610b8160208301876109f7565b610b8e6040830186610b49565b610b9b60608301856109cd565b610ba860808301846109f7565b9695505050505050565b600080fd5b600080fd5b7f4e487b7100000000000000000000000000000000000000000000000000000000600052604160045260246000fd5b610bf482610aed565b810181811067ffffffffffffffff82111715610c1357610c12610bbc565b5b80604052505050565b6000610c266108bf565b9050610c328282610beb565b919050565b600067ffffffffffffffff821115610c5257610c51610bbc565b5b610c5b82610aed565b9050602081019050919050565b82818337600083830152505050565b6000610c8a610c8584610c37565b610c1c565b905082815260208101848484011115610ca657610ca5610bb7565b5b610cb1848285610c68565b509392505050565b600082601f830112610cce57610ccd610bb2565b5b8135610cde848260208601610c77565b91505092915050565b610cf081610b37565b8114610cfb57600080fd5b50565b600081359050610d0d81610ce7565b92915050565b600080600060608486031215610d2c57610d2b6108c9565b5b600084013567ffffffffffffffff811115610d4a57610d496108ce565b5b610d5686828701610cb9565b9350506020610d67868287016108f4565b9250506040610d7886828701610cfe565b9150509250925092565b7f4e487b7100000000000000000000000000000000000000000000000000000000600052601260045260246000fd5b7f4e487b7100000000000000000000000000000000000000000000000000000000600052601160045260246000fd5b6000610deb826108d3565b9150610df6836108d3565b925082610e0657610e05610d82565b5b828204905092915050565b7f4e487b7100000000000000000000000000000000000000000000000000000000600052602260045260246000fd5b60006002820490506001821680610e5857607f821691505b60208210811415610e6c57610e6b610e11565b5b50919050565b6000610e7d826108d3565b91507fffffffffffffffffffffffffffffffffffffffffffffffffffffffffffffffff821415610eb057610eaf610db1565b5b60018201905091905056fea26469706673582212208a16a59553d27470284f113e6301493e0b6443bb846efe94074ea82c569bfdc764736f6c63430008090033a2646970667358221220beb10f8a604ec649cef465218c75c24a9fcd2e7ccaa2567b87020e3adf28e59964736f6c63430008090033","opcodes":"PUSH1 0x80 PUSH1 0x40 MSTORE CALLVALUE DUP1 ISZERO PUSH2 0x10 JUMPI PUSH1 0x0 DUP1 REVERT JUMPDEST POP PUSH2 0x1510 DUP1 PUSH2 0x20 PUSH1 0x0 CODECOPY PUSH1 0x0 RETURN INVALID PUSH1 0x80 PUSH1 0x40 MSTORE CALLVALUE DUP1 ISZERO PUSH2 0x10 JUMPI PUSH1 0x0 DUP1 REVERT JUMPDEST POP PUSH1 0x4 CALLDATASIZE LT PUSH2 0x41 JUMPI PUSH1 0x0 CALLDATALOAD PUSH1 0xE0 SHR DUP1 PUSH4 0x339D50A5 EQ PUSH2 0x46 JUMPI DUP1 PUSH4 0x4ACB9D4F EQ PUSH2 0x76 JUMPI DUP1 PUSH4 0xA3303A75 EQ PUSH2 0x94 JUMPI JUMPDEST PUSH1 0x0 DUP1 REVERT JUMPDEST PUSH2 0x60 PUSH1 0x4 DUP1 CALLDATASIZE SUB DUP2 ADD SWAP1 PUSH2 0x5B SWAP2 SWAP1 PUSH2 0x266 JUMP JUMPDEST PUSH2 0xB0 JUMP JUMPDEST PUSH1 0x40 MLOAD PUSH2 0x6D SWAP2 SWAP1 PUSH2 0x312 JUMP JUMPDEST PUSH1 0x40 MLOAD DUP1 SWAP2 SUB SWAP1 RETURN JUMPDEST PUSH2 0x7E PUSH2 0xEF JUMP JUMPDEST PUSH1 0x40 MLOAD PUSH2 0x8B SWAP2 SWAP1 PUSH2 0x3EB JUMP JUMPDEST PUSH1 0x40 MLOAD DUP1 SWAP2 SUB SWAP1 RETURN JUMPDEST PUSH2 0xAE PUSH1 0x4 DUP1 CALLDATASIZE SUB DUP2 ADD SWAP1 PUSH2 0xA9 SWAP2 SWAP1 PUSH2 0x266 JUMP JUMPDEST PUSH2 0x17D JUMP JUMPDEST STOP JUMPDEST PUSH1 0x0 DUP2 DUP2 SLOAD DUP2 LT PUSH2 0xC0 JUMPI PUSH1 0x0 DUP1 REVERT JUMPDEST SWAP1 PUSH1 0x0 MSTORE PUSH1 0x20 PUSH1 0x0 KECCAK256 ADD PUSH1 0x0 SWAP2 POP SLOAD SWAP1 PUSH2 0x100 EXP SWAP1 DIV PUSH20 0xFFFFFFFFFFFFFFFFFFFFFFFFFFFFFFFFFFFFFFFF AND DUP2 JUMP JUMPDEST PUSH1 0x60 PUSH1 0x0 DUP1 SLOAD DUP1 PUSH1 0x20 MUL PUSH1 0x20 ADD PUSH1 0x40 MLOAD SWAP1 DUP2 ADD PUSH1 0x40 MSTORE DUP1 SWAP3 SWAP2 SWAP1 DUP2 DUP2 MSTORE PUSH1 0x20 ADD DUP3 DUP1 SLOAD DUP1 ISZERO PUSH2 0x173 JUMPI PUSH1 0x20 MUL DUP3 ADD SWAP2 SWAP1 PUSH1 0x0 MSTORE PUSH1 0x20 PUSH1 0x0 KECCAK256 SWAP1 JUMPDEST DUP2 PUSH1 0x0 SWAP1 SLOAD SWAP1 PUSH2 0x100 EXP SWAP1 DIV PUSH20 0xFFFFFFFFFFFFFFFFFFFFFFFFFFFFFFFFFFFFFFFF AND PUSH20 0xFFFFFFFFFFFFFFFFFFFFFFFFFFFFFFFFFFFFFFFF AND DUP2 MSTORE PUSH1 0x20 ADD SWAP1 PUSH1 0x1 ADD SWAP1 DUP1 DUP4 GT PUSH2 0x129 JUMPI JUMPDEST POP POP POP POP POP SWAP1 POP SWAP1 JUMP JUMPDEST PUSH1 0x0 DUP2 CALLER PUSH1 0x40 MLOAD PUSH2 0x18D SWAP1 PUSH2 0x21E JUMP JUMPDEST PUSH2 0x198 SWAP3 SWAP2 SWAP1 PUSH2 0x43D JUMP JUMPDEST PUSH1 0x40 MLOAD DUP1 SWAP2 SUB SWAP1 PUSH1 0x0 CREATE DUP1 ISZERO DUP1 ISZERO PUSH2 0x1B4 JUMPI RETURNDATASIZE PUSH1 0x0 DUP1 RETURNDATACOPY RETURNDATASIZE PUSH1 0x0 REVERT JUMPDEST POP SWAP1 POP PUSH1 0x0 DUP2 SWAP1 DUP1 PUSH1 0x1 DUP2 SLOAD ADD DUP1 DUP3 SSTORE DUP1 SWAP2 POP POP PUSH1 0x1 SWAP1 SUB SWAP1 PUSH1 0x0 MSTORE PUSH1 0x20 PUSH1 0x0 KECCAK256 ADD PUSH1 0x0 SWAP1 SWAP2 SWAP1 SWAP2 SWAP1 SWAP2 PUSH2 0x100 EXP DUP2 SLOAD DUP2 PUSH20 0xFFFFFFFFFFFFFFFFFFFFFFFFFFFFFFFFFFFFFFFF MUL NOT AND SWAP1 DUP4 PUSH20 0xFFFFFFFFFFFFFFFFFFFFFFFFFFFFFFFFFFFFFFFF AND MUL OR SWAP1 SSTORE POP POP POP JUMP JUMPDEST PUSH2 0x1074 DUP1 PUSH2 0x467 DUP4 CODECOPY ADD SWAP1 JUMP JUMPDEST PUSH1 0x0 DUP1 REVERT JUMPDEST PUSH1 0x0 DUP2 SWAP1 POP SWAP2 SWAP1 POP JUMP JUMPDEST PUSH2 0x243 DUP2 PUSH2 0x230 JUMP JUMPDEST DUP2 EQ PUSH2 0x24E JUMPI PUSH1 0x0 DUP1 REVERT JUMPDEST POP JUMP JUMPDEST PUSH1 0x0 DUP2 CALLDATALOAD SWAP1 POP PUSH2 0x260 DUP2 PUSH2 0x23A JUMP JUMPDEST SWAP3 SWAP2 POP POP JUMP JUMPDEST PUSH1 0x0 PUSH1 0x20 DUP3 DUP5 SUB SLT ISZERO PUSH2 0x27C JUMPI PUSH2 0x27B PUSH2 0x22B JUMP JUMPDEST JUMPDEST PUSH1 0x0 PUSH2 0x28A DUP5 DUP3 DUP6 ADD PUSH2 0x251 JUMP JUMPDEST SWAP2 POP POP SWAP3 SWAP2 POP POP JUMP JUMPDEST PUSH1 0x0 PUSH20 0xFFFFFFFFFFFFFFFFFFFFFFFFFFFFFFFFFFFFFFFF DUP3 AND SWAP1 POP SWAP2 SWAP1 POP JUMP JUMPDEST PUSH1 0x0 DUP2 SWAP1 POP SWAP2 SWAP1 POP JUMP JUMPDEST PUSH1 0x0 PUSH2 0x2D8 PUSH2 0x2D3 PUSH2 0x2CE DUP5 PUSH2 0x293 JUMP JUMPDEST PUSH2 0x2B3 JUMP JUMPDEST PUSH2 0x293 JUMP JUMPDEST SWAP1 POP SWAP2 SWAP1 POP JUMP JUMPDEST PUSH1 0x0 PUSH2 0x2EA DUP3 PUSH2 0x2BD JUMP JUMPDEST SWAP1 POP SWAP2 SWAP1 POP JUMP JUMPDEST PUSH1 0x0 PUSH2 0x2FC DUP3 PUSH2 0x2DF JUMP JUMPDEST SWAP1 POP SWAP2 SWAP1 POP JUMP JUMPDEST PUSH2 0x30C DUP2 PUSH2 0x2F1 JUMP JUMPDEST DUP3 MSTORE POP POP JUMP JUMPDEST PUSH1 0x0 PUSH1 0x20 DUP3 ADD SWAP1 POP PUSH2 0x327 PUSH1 0x0 DUP4 ADD DUP5 PUSH2 0x303 JUMP JUMPDEST SWAP3 SWAP2 POP POP JUMP JUMPDEST PUSH1 0x0 DUP2 MLOAD SWAP1 POP SWAP2 SWAP1 POP JUMP JUMPDEST PUSH1 0x0 DUP3 DUP3 MSTORE PUSH1 0x20 DUP3 ADD SWAP1 POP SWAP3 SWAP2 POP POP JUMP JUMPDEST PUSH1 0x0 DUP2 SWAP1 POP PUSH1 0x20 DUP3 ADD SWAP1 POP SWAP2 SWAP1 POP JUMP JUMPDEST PUSH2 0x362 DUP2 PUSH2 0x2F1 JUMP JUMPDEST DUP3 MSTORE POP POP JUMP JUMPDEST PUSH1 0x0 PUSH2 0x374 DUP4 DUP4 PUSH2 0x359 JUMP JUMPDEST PUSH1 0x20 DUP4 ADD SWAP1 POP SWAP3 SWAP2 POP POP JUMP JUMPDEST PUSH1 0x0 PUSH1 0x20 DUP3 ADD SWAP1 POP SWAP2 SWAP1 POP JUMP JUMPDEST PUSH1 0x0 PUSH2 0x398 DUP3 PUSH2 0x32D JUMP JUMPDEST PUSH2 0x3A2 DUP2 DUP6 PUSH2 0x338 JUMP JUMPDEST SWAP4 POP PUSH2 0x3AD DUP4 PUSH2 0x349 JUMP JUMPDEST DUP1 PUSH1 0x0 JUMPDEST DUP4 DUP2 LT ISZERO PUSH2 0x3DE JUMPI DUP2 MLOAD PUSH2 0x3C5 DUP9 DUP3 PUSH2 0x368 JUMP JUMPDEST SWAP8 POP PUSH2 0x3D0 DUP4 PUSH2 0x380 JUMP JUMPDEST SWAP3 POP POP PUSH1 0x1 DUP2 ADD SWAP1 POP PUSH2 0x3B1 JUMP JUMPDEST POP DUP6 SWAP4 POP POP POP POP SWAP3 SWAP2 POP POP JUMP JUMPDEST PUSH1 0x0 PUSH1 0x20 DUP3 ADD SWAP1 POP DUP2 DUP2 SUB PUSH1 0x0 DUP4 ADD MSTORE PUSH2 0x405 DUP2 DUP5 PUSH2 0x38D JUMP JUMPDEST SWAP1 POP SWAP3 SWAP2 POP POP JUMP JUMPDEST PUSH2 0x416 DUP2 PUSH2 0x230 JUMP JUMPDEST DUP3 MSTORE POP POP JUMP JUMPDEST PUSH1 0x0 PUSH2 0x427 DUP3 PUSH2 0x293 JUMP JUMPDEST SWAP1 POP SWAP2 SWAP1 POP JUMP JUMPDEST PUSH2 0x437 DUP2 PUSH2 0x41C JUMP JUMPDEST DUP3 MSTORE POP POP JUMP JUMPDEST PUSH1 0x0 PUSH1 0x40 DUP3 ADD SWAP1 POP PUSH2 0x452 PUSH1 0x0 DUP4 ADD DUP6 PUSH2 0x40D JUMP JUMPDEST PUSH2 0x45F PUSH1 0x20 DUP4 ADD DUP5 PUSH2 0x42E JUMP JUMPDEST SWAP4 SWAP3 POP POP POP JUMP INVALID PUSH1 0x80 PUSH1 0x40 MSTORE CALLVALUE DUP1 ISZERO PUSH3 0x11 JUMPI PUSH1 0x0 DUP1 REVERT JUMPDEST POP PUSH1 0x40 MLOAD PUSH3 0x1074 CODESIZE SUB DUP1 PUSH3 0x1074 DUP4 CODECOPY DUP2 DUP2 ADD PUSH1 0x40 MSTORE DUP2 ADD SWAP1 PUSH3 0x37 SWAP2 SWAP1 PUSH3 0x12C JUMP JUMPDEST DUP1 PUSH1 0x2 PUSH1 0x0 PUSH2 0x100 EXP DUP2 SLOAD DUP2 PUSH20 0xFFFFFFFFFFFFFFFFFFFFFFFFFFFFFFFFFFFFFFFF MUL NOT AND SWAP1 DUP4 PUSH20 0xFFFFFFFFFFFFFFFFFFFFFFFFFFFFFFFFFFFFFFFF AND MUL OR SWAP1 SSTORE POP DUP2 PUSH1 0x3 DUP2 SWAP1 SSTORE POP POP POP PUSH3 0x173 JUMP JUMPDEST PUSH1 0x0 DUP1 REVERT JUMPDEST PUSH1 0x0 DUP2 SWAP1 POP SWAP2 SWAP1 POP JUMP JUMPDEST PUSH3 0xA1 DUP2 PUSH3 0x8C JUMP JUMPDEST DUP2 EQ PUSH3 0xAD JUMPI PUSH1 0x0 DUP1 REVERT JUMPDEST POP JUMP JUMPDEST PUSH1 0x0 DUP2 MLOAD SWAP1 POP PUSH3 0xC1 DUP2 PUSH3 0x96 JUMP JUMPDEST SWAP3 SWAP2 POP POP JUMP JUMPDEST PUSH1 0x0 PUSH20 0xFFFFFFFFFFFFFFFFFFFFFFFFFFFFFFFFFFFFFFFF DUP3 AND SWAP1 POP SWAP2 SWAP1 POP JUMP JUMPDEST PUSH1 0x0 PUSH3 0xF4 DUP3 PUSH3 0xC7 JUMP JUMPDEST SWAP1 POP SWAP2 SWAP1 POP JUMP JUMPDEST PUSH3 0x106 DUP2 PUSH3 0xE7 JUMP JUMPDEST DUP2 EQ PUSH3 0x112 JUMPI PUSH1 0x0 DUP1 REVERT JUMPDEST POP JUMP JUMPDEST PUSH1 0x0 DUP2 MLOAD SWAP1 POP PUSH3 0x126 DUP2 PUSH3 0xFB JUMP JUMPDEST SWAP3 SWAP2 POP POP JUMP JUMPDEST PUSH1 0x0 DUP1 PUSH1 0x40 DUP4 DUP6 SUB SLT ISZERO PUSH3 0x146 JUMPI PUSH3 0x145 PUSH3 0x87 JUMP JUMPDEST JUMPDEST PUSH1 0x0 PUSH3 0x156 DUP6 DUP3 DUP7 ADD PUSH3 0xB0 JUMP JUMPDEST SWAP3 POP POP PUSH1 0x20 PUSH3 0x169 DUP6 DUP3 DUP7 ADD PUSH3 0x115 JUMP JUMPDEST SWAP2 POP POP SWAP3 POP SWAP3 SWAP1 POP JUMP JUMPDEST PUSH2 0xEF1 DUP1 PUSH3 0x183 PUSH1 0x0 CODECOPY PUSH1 0x0 RETURN INVALID PUSH1 0x80 PUSH1 0x40 MSTORE PUSH1 0x4 CALLDATASIZE LT PUSH2 0x9C JUMPI PUSH1 0x0 CALLDATALOAD PUSH1 0xE0 SHR DUP1 PUSH4 0x81D12C58 GT PUSH2 0x64 JUMPI DUP1 PUSH4 0x81D12C58 EQ PUSH2 0x18C JUMPI DUP1 PUSH4 0x82FDE093 EQ PUSH2 0x1CD JUMPI DUP1 PUSH4 0x8A9CFD55 EQ PUSH2 0x1F8 JUMPI DUP1 PUSH4 0x937E09B1 EQ PUSH2 0x221 JUMPI DUP1 PUSH4 0xD7BB99BA EQ PUSH2 0x24C JUMPI DUP1 PUSH4 0xD7D1BBDB EQ PUSH2 0x256 JUMPI PUSH2 0x9C JUMP JUMPDEST DUP1 PUSH4 0x3441006 EQ PUSH2 0xA1 JUMPI DUP1 PUSH4 0xA144391 EQ PUSH2 0xCA JUMPI DUP1 PUSH4 0x3410452A EQ PUSH2 0x107 JUMPI DUP1 PUSH4 0x4051DDAC EQ PUSH2 0x132 JUMPI DUP1 PUSH4 0x481C6A75 EQ PUSH2 0x161 JUMPI JUMPDEST PUSH1 0x0 DUP1 REVERT JUMPDEST CALLVALUE DUP1 ISZERO PUSH2 0xAD JUMPI PUSH1 0x0 DUP1 REVERT JUMPDEST POP PUSH2 0xC8 PUSH1 0x4 DUP1 CALLDATASIZE SUB DUP2 ADD SWAP1 PUSH2 0xC3 SWAP2 SWAP1 PUSH2 0x909 JUMP JUMPDEST PUSH2 0x27F JUMP JUMPDEST STOP JUMPDEST CALLVALUE DUP1 ISZERO PUSH2 0xD6 JUMPI PUSH1 0x0 DUP1 REVERT JUMPDEST POP PUSH2 0xF1 PUSH1 0x4 DUP1 CALLDATASIZE SUB DUP2 ADD SWAP1 PUSH2 0xEC SWAP2 SWAP1 PUSH2 0x994 JUMP JUMPDEST PUSH2 0x3BA JUMP JUMPDEST PUSH1 0x40 MLOAD PUSH2 0xFE SWAP2 SWAP1 PUSH2 0x9DC JUMP JUMPDEST PUSH1 0x40 MLOAD DUP1 SWAP2 SUB SWAP1 RETURN JUMPDEST CALLVALUE DUP1 ISZERO PUSH2 0x113 JUMPI PUSH1 0x0 DUP1 REVERT JUMPDEST POP PUSH2 0x11C PUSH2 0x3DA JUMP JUMPDEST PUSH1 0x40 MLOAD PUSH2 0x129 SWAP2 SWAP1 PUSH2 0xA06 JUMP JUMPDEST PUSH1 0x40 MLOAD DUP1 SWAP2 SUB SWAP1 RETURN JUMPDEST CALLVALUE DUP1 ISZERO PUSH2 0x13E JUMPI PUSH1 0x0 DUP1 REVERT JUMPDEST POP PUSH2 0x147 PUSH2 0x3E3 JUMP JUMPDEST PUSH1 0x40 MLOAD PUSH2 0x158 SWAP6 SWAP5 SWAP4 SWAP3 SWAP2 SWAP1 PUSH2 0xA30 JUMP JUMPDEST PUSH1 0x40 MLOAD DUP1 SWAP2 SUB SWAP1 RETURN JUMPDEST CALLVALUE DUP1 ISZERO PUSH2 0x16D JUMPI PUSH1 0x0 DUP1 REVERT JUMPDEST POP PUSH2 0x176 PUSH2 0x429 JUMP JUMPDEST PUSH1 0x40 MLOAD PUSH2 0x183 SWAP2 SWAP1 PUSH2 0xA83 JUMP JUMPDEST PUSH1 0x40 MLOAD DUP1 SWAP2 SUB SWAP1 RETURN JUMPDEST CALLVALUE DUP1 ISZERO PUSH2 0x198 JUMPI PUSH1 0x0 DUP1 REVERT JUMPDEST POP PUSH2 0x1B3 PUSH1 0x4 DUP1 CALLDATASIZE SUB DUP2 ADD SWAP1 PUSH2 0x1AE SWAP2 SWAP1 PUSH2 0x909 JUMP JUMPDEST PUSH2 0x44F JUMP JUMPDEST PUSH1 0x40 MLOAD PUSH2 0x1C4 SWAP6 SWAP5 SWAP4 SWAP3 SWAP2 SWAP1 PUSH2 0xB58 JUMP JUMPDEST PUSH1 0x40 MLOAD DUP1 SWAP2 SUB SWAP1 RETURN JUMPDEST CALLVALUE DUP1 ISZERO PUSH2 0x1D9 JUMPI PUSH1 0x0 DUP1 REVERT JUMPDEST POP PUSH2 0x1E2 PUSH2 0x53A JUMP JUMPDEST PUSH1 0x40 MLOAD PUSH2 0x1EF SWAP2 SWAP1 PUSH2 0xA06 JUMP JUMPDEST PUSH1 0x40 MLOAD DUP1 SWAP2 SUB SWAP1 RETURN JUMPDEST CALLVALUE DUP1 ISZERO PUSH2 0x204 JUMPI PUSH1 0x0 DUP1 REVERT JUMPDEST POP PUSH2 0x21F PUSH1 0x4 DUP1 CALLDATASIZE SUB DUP2 ADD SWAP1 PUSH2 0x21A SWAP2 SWAP1 PUSH2 0xD13 JUMP JUMPDEST PUSH2 0x540 JUMP JUMPDEST STOP JUMPDEST CALLVALUE DUP1 ISZERO PUSH2 0x22D JUMPI PUSH1 0x0 DUP1 REVERT JUMPDEST POP PUSH2 0x236 PUSH2 0x658 JUMP JUMPDEST PUSH1 0x40 MLOAD PUSH2 0x243 SWAP2 SWAP1 PUSH2 0xA06 JUMP JUMPDEST PUSH1 0x40 MLOAD DUP1 SWAP2 SUB SWAP1 RETURN JUMPDEST PUSH2 0x254 PUSH2 0x65E JUMP JUMPDEST STOP JUMPDEST CALLVALUE DUP1 ISZERO PUSH2 0x262 JUMPI PUSH1 0x0 DUP1 REVERT JUMPDEST POP PUSH2 0x27D PUSH1 0x4 DUP1 CALLDATASIZE SUB DUP2 ADD SWAP1 PUSH2 0x278 SWAP2 SWAP1 PUSH2 0x909 JUMP JUMPDEST PUSH2 0x6DE JUMP JUMPDEST STOP JUMPDEST PUSH1 0x2 PUSH1 0x0 SWAP1 SLOAD SWAP1 PUSH2 0x100 EXP SWAP1 DIV PUSH20 0xFFFFFFFFFFFFFFFFFFFFFFFFFFFFFFFFFFFFFFFF AND PUSH20 0xFFFFFFFFFFFFFFFFFFFFFFFFFFFFFFFFFFFFFFFF AND CALLER PUSH20 0xFFFFFFFFFFFFFFFFFFFFFFFFFFFFFFFFFFFFFFFF AND EQ PUSH2 0x2D9 JUMPI PUSH1 0x0 DUP1 REVERT JUMPDEST PUSH1 0x0 PUSH1 0x1 PUSH1 0x0 DUP4 DUP2 MSTORE PUSH1 0x20 ADD SWAP1 DUP2 MSTORE PUSH1 0x20 ADD PUSH1 0x0 KECCAK256 SWAP1 POP PUSH1 0x2 PUSH1 0x5 SLOAD PUSH2 0x2FF SWAP2 SWAP1 PUSH2 0xDE0 JUMP JUMPDEST DUP2 PUSH1 0x3 ADD SLOAD GT PUSH2 0x30E JUMPI PUSH1 0x0 DUP1 REVERT JUMPDEST DUP1 PUSH1 0x2 ADD PUSH1 0x14 SWAP1 SLOAD SWAP1 PUSH2 0x100 EXP SWAP1 DIV PUSH1 0xFF AND ISZERO PUSH2 0x32A JUMPI PUSH1 0x0 DUP1 REVERT JUMPDEST DUP1 PUSH1 0x2 ADD PUSH1 0x0 SWAP1 SLOAD SWAP1 PUSH2 0x100 EXP SWAP1 DIV PUSH20 0xFFFFFFFFFFFFFFFFFFFFFFFFFFFFFFFFFFFFFFFF AND PUSH20 0xFFFFFFFFFFFFFFFFFFFFFFFFFFFFFFFFFFFFFFFF AND PUSH2 0x8FC DUP3 PUSH1 0x1 ADD SLOAD SWAP1 DUP2 ISZERO MUL SWAP1 PUSH1 0x40 MLOAD PUSH1 0x0 PUSH1 0x40 MLOAD DUP1 DUP4 SUB DUP2 DUP6 DUP9 DUP9 CALL SWAP4 POP POP POP POP ISZERO DUP1 ISZERO PUSH2 0x398 JUMPI RETURNDATASIZE PUSH1 0x0 DUP1 RETURNDATACOPY RETURNDATASIZE PUSH1 0x0 REVERT JUMPDEST POP PUSH1 0x1 DUP2 PUSH1 0x2 ADD PUSH1 0x14 PUSH2 0x100 EXP DUP2 SLOAD DUP2 PUSH1 0xFF MUL NOT AND SWAP1 DUP4 ISZERO ISZERO MUL OR SWAP1 SSTORE POP POP POP JUMP JUMPDEST PUSH1 0x4 PUSH1 0x20 MSTORE DUP1 PUSH1 0x0 MSTORE PUSH1 0x40 PUSH1 0x0 KECCAK256 PUSH1 0x0 SWAP2 POP SLOAD SWAP1 PUSH2 0x100 EXP SWAP1 DIV PUSH1 0xFF AND DUP2 JUMP JUMPDEST PUSH1 0x0 DUP1 SLOAD SWAP1 POP SWAP1 JUMP JUMPDEST PUSH1 0x0 DUP1 PUSH1 0x0 DUP1 PUSH1 0x0 PUSH1 0x3 SLOAD SELFBALANCE PUSH1 0x0 SLOAD PUSH1 0x5 SLOAD PUSH1 0x2 PUSH1 0x0 SWAP1 SLOAD SWAP1 PUSH2 0x100 EXP SWAP1 DIV PUSH20 0xFFFFFFFFFFFFFFFFFFFFFFFFFFFFFFFFFFFFFFFF AND SWAP5 POP SWAP5 POP SWAP5 POP SWAP5 POP SWAP5 POP SWAP1 SWAP2 SWAP3 SWAP4 SWAP5 JUMP JUMPDEST PUSH1 0x2 PUSH1 0x0 SWAP1 SLOAD SWAP1 PUSH2 0x100 EXP SWAP1 DIV PUSH20 0xFFFFFFFFFFFFFFFFFFFFFFFFFFFFFFFFFFFFFFFF AND DUP2 JUMP JUMPDEST PUSH1 0x1 PUSH1 0x20 MSTORE DUP1 PUSH1 0x0 MSTORE PUSH1 0x40 PUSH1 0x0 KECCAK256 PUSH1 0x0 SWAP2 POP SWAP1 POP DUP1 PUSH1 0x0 ADD DUP1 SLOAD PUSH2 0x472 SWAP1 PUSH2 0xE40 JUMP JUMPDEST DUP1 PUSH1 0x1F ADD PUSH1 0x20 DUP1 SWAP2 DIV MUL PUSH1 0x20 ADD PUSH1 0x40 MLOAD SWAP1 DUP2 ADD PUSH1 0x40 MSTORE DUP1 SWAP3 SWAP2 SWAP1 DUP2 DUP2 MSTORE PUSH1 0x20 ADD DUP3 DUP1 SLOAD PUSH2 0x49E SWAP1 PUSH2 0xE40 JUMP JUMPDEST DUP1 ISZERO PUSH2 0x4EB JUMPI DUP1 PUSH1 0x1F LT PUSH2 0x4C0 JUMPI PUSH2 0x100 DUP1 DUP4 SLOAD DIV MUL DUP4 MSTORE SWAP2 PUSH1 0x20 ADD SWAP2 PUSH2 0x4EB JUMP JUMPDEST DUP3 ADD SWAP2 SWAP1 PUSH1 0x0 MSTORE PUSH1 0x20 PUSH1 0x0 KECCAK256 SWAP1 JUMPDEST DUP2 SLOAD DUP2 MSTORE SWAP1 PUSH1 0x1 ADD SWAP1 PUSH1 0x20 ADD DUP1 DUP4 GT PUSH2 0x4CE JUMPI DUP3 SWAP1 SUB PUSH1 0x1F AND DUP3 ADD SWAP2 JUMPDEST POP POP POP POP POP SWAP1 DUP1 PUSH1 0x1 ADD SLOAD SWAP1 DUP1 PUSH1 0x2 ADD PUSH1 0x0 SWAP1 SLOAD SWAP1 PUSH2 0x100 EXP SWAP1 DIV PUSH20 0xFFFFFFFFFFFFFFFFFFFFFFFFFFFFFFFFFFFFFFFF AND SWAP1 DUP1 PUSH1 0x2 ADD PUSH1 0x14 SWAP1 SLOAD SWAP1 PUSH2 0x100 EXP SWAP1 DIV PUSH1 0xFF AND SWAP1 DUP1 PUSH1 0x3 ADD SLOAD SWAP1 POP DUP6 JUMP JUMPDEST PUSH1 0x5 SLOAD DUP2 JUMP JUMPDEST PUSH1 0x2 PUSH1 0x0 SWAP1 SLOAD SWAP1 PUSH2 0x100 EXP SWAP1 DIV PUSH20 0xFFFFFFFFFFFFFFFFFFFFFFFFFFFFFFFFFFFFFFFF AND PUSH20 0xFFFFFFFFFFFFFFFFFFFFFFFFFFFFFFFFFFFFFFFF AND CALLER PUSH20 0xFFFFFFFFFFFFFFFFFFFFFFFFFFFFFFFFFFFFFFFF AND EQ PUSH2 0x59A JUMPI PUSH1 0x0 DUP1 REVERT JUMPDEST PUSH1 0x0 PUSH1 0x1 PUSH1 0x0 DUP1 PUSH1 0x0 DUP2 SLOAD DUP1 SWAP3 SWAP2 SWAP1 PUSH2 0x5B2 SWAP1 PUSH2 0xE72 JUMP JUMPDEST SWAP2 SWAP1 POP SSTORE DUP2 MSTORE PUSH1 0x20 ADD SWAP1 DUP2 MSTORE PUSH1 0x20 ADD PUSH1 0x0 KECCAK256 SWAP1 POP DUP4 DUP2 PUSH1 0x0 ADD SWAP1 DUP1 MLOAD SWAP1 PUSH1 0x20 ADD SWAP1 PUSH2 0x5DE SWAP3 SWAP2 SWAP1 PUSH2 0x81C JUMP JUMPDEST POP DUP3 DUP2 PUSH1 0x1 ADD DUP2 SWAP1 SSTORE POP DUP2 DUP2 PUSH1 0x2 ADD PUSH1 0x0 PUSH2 0x100 EXP DUP2 SLOAD DUP2 PUSH20 0xFFFFFFFFFFFFFFFFFFFFFFFFFFFFFFFFFFFFFFFF MUL NOT AND SWAP1 DUP4 PUSH20 0xFFFFFFFFFFFFFFFFFFFFFFFFFFFFFFFFFFFFFFFF AND MUL OR SWAP1 SSTORE POP PUSH1 0x0 DUP2 PUSH1 0x2 ADD PUSH1 0x14 PUSH2 0x100 EXP DUP2 SLOAD DUP2 PUSH1 0xFF MUL NOT AND SWAP1 DUP4 ISZERO ISZERO MUL OR SWAP1 SSTORE POP PUSH1 0x0 DUP2 PUSH1 0x3 ADD DUP2 SWAP1 SSTORE POP POP POP POP POP JUMP JUMPDEST PUSH1 0x3 SLOAD DUP2 JUMP JUMPDEST PUSH1 0x3 SLOAD CALLVALUE GT PUSH2 0x66C JUMPI PUSH1 0x0 DUP1 REVERT JUMPDEST PUSH1 0x1 PUSH1 0x4 PUSH1 0x0 CALLER PUSH20 0xFFFFFFFFFFFFFFFFFFFFFFFFFFFFFFFFFFFFFFFF AND PUSH20 0xFFFFFFFFFFFFFFFFFFFFFFFFFFFFFFFFFFFFFFFF AND DUP2 MSTORE PUSH1 0x20 ADD SWAP1 DUP2 MSTORE PUSH1 0x20 ADD PUSH1 0x0 KECCAK256 PUSH1 0x0 PUSH2 0x100 EXP DUP2 SLOAD DUP2 PUSH1 0xFF MUL NOT AND SWAP1 DUP4 ISZERO ISZERO MUL OR SWAP1 SSTORE POP PUSH1 0x5 PUSH1 0x0 DUP2 SLOAD DUP1 SWAP3 SWAP2 SWAP1 PUSH2 0x6D7 SWAP1 PUSH2 0xE72 JUMP JUMPDEST SWAP2 SWAP1 POP SSTORE POP JUMP JUMPDEST PUSH1 0x0 PUSH1 0x1 PUSH1 0x0 DUP4 DUP2 MSTORE PUSH1 0x20 ADD SWAP1 DUP2 MSTORE PUSH1 0x20 ADD PUSH1 0x0 KECCAK256 SWAP1 POP PUSH1 0x4 PUSH1 0x0 CALLER PUSH20 0xFFFFFFFFFFFFFFFFFFFFFFFFFFFFFFFFFFFFFFFF AND PUSH20 0xFFFFFFFFFFFFFFFFFFFFFFFFFFFFFFFFFFFFFFFF AND DUP2 MSTORE PUSH1 0x20 ADD SWAP1 DUP2 MSTORE PUSH1 0x20 ADD PUSH1 0x0 KECCAK256 PUSH1 0x0 SWAP1 SLOAD SWAP1 PUSH2 0x100 EXP SWAP1 DIV PUSH1 0xFF AND PUSH2 0x74B JUMPI PUSH1 0x0 DUP1 REVERT JUMPDEST DUP1 PUSH1 0x4 ADD PUSH1 0x0 CALLER PUSH20 0xFFFFFFFFFFFFFFFFFFFFFFFFFFFFFFFFFFFFFFFF AND PUSH20 0xFFFFFFFFFFFFFFFFFFFFFFFFFFFFFFFFFFFFFFFF AND DUP2 MSTORE PUSH1 0x20 ADD SWAP1 DUP2 MSTORE PUSH1 0x20 ADD PUSH1 0x0 KECCAK256 PUSH1 0x0 SWAP1 SLOAD SWAP1 PUSH2 0x100 EXP SWAP1 DIV PUSH1 0xFF AND ISZERO PUSH2 0x7A4 JUMPI PUSH1 0x0 DUP1 REVERT JUMPDEST PUSH1 0x1 DUP2 PUSH1 0x4 ADD PUSH1 0x0 CALLER PUSH20 0xFFFFFFFFFFFFFFFFFFFFFFFFFFFFFFFFFFFFFFFF AND PUSH20 0xFFFFFFFFFFFFFFFFFFFFFFFFFFFFFFFFFFFFFFFF AND DUP2 MSTORE PUSH1 0x20 ADD SWAP1 DUP2 MSTORE PUSH1 0x20 ADD PUSH1 0x0 KECCAK256 PUSH1 0x0 PUSH2 0x100 EXP DUP2 SLOAD DUP2 PUSH1 0xFF MUL NOT AND SWAP1 DUP4 ISZERO ISZERO MUL OR SWAP1 SSTORE POP DUP1 PUSH1 0x3 ADD PUSH1 0x0 DUP2 SLOAD DUP1 SWAP3 SWAP2 SWAP1 PUSH2 0x813 SWAP1 PUSH2 0xE72 JUMP JUMPDEST SWAP2 SWAP1 POP SSTORE POP POP POP JUMP JUMPDEST DUP3 DUP1 SLOAD PUSH2 0x828 SWAP1 PUSH2 0xE40 JUMP JUMPDEST SWAP1 PUSH1 0x0 MSTORE PUSH1 0x20 PUSH1 0x0 KECCAK256 SWAP1 PUSH1 0x1F ADD PUSH1 0x20 SWAP1 DIV DUP2 ADD SWAP3 DUP3 PUSH2 0x84A JUMPI PUSH1 0x0 DUP6 SSTORE PUSH2 0x891 JUMP JUMPDEST DUP3 PUSH1 0x1F LT PUSH2 0x863 JUMPI DUP1 MLOAD PUSH1 0xFF NOT AND DUP4 DUP1 ADD OR DUP6 SSTORE PUSH2 0x891 JUMP JUMPDEST DUP3 DUP1 ADD PUSH1 0x1 ADD DUP6 SSTORE DUP3 ISZERO PUSH2 0x891 JUMPI SWAP2 DUP3 ADD JUMPDEST DUP3 DUP2 GT ISZERO PUSH2 0x890 JUMPI DUP3 MLOAD DUP3 SSTORE SWAP2 PUSH1 0x20 ADD SWAP2 SWAP1 PUSH1 0x1 ADD SWAP1 PUSH2 0x875 JUMP JUMPDEST JUMPDEST POP SWAP1 POP PUSH2 0x89E SWAP2 SWAP1 PUSH2 0x8A2 JUMP JUMPDEST POP SWAP1 JUMP JUMPDEST JUMPDEST DUP1 DUP3 GT ISZERO PUSH2 0x8BB JUMPI PUSH1 0x0 DUP2 PUSH1 0x0 SWAP1 SSTORE POP PUSH1 0x1 ADD PUSH2 0x8A3 JUMP JUMPDEST POP SWAP1 JUMP JUMPDEST PUSH1 0x0 PUSH1 0x40 MLOAD SWAP1 POP SWAP1 JUMP JUMPDEST PUSH1 0x0 DUP1 REVERT JUMPDEST PUSH1 0x0 DUP1 REVERT JUMPDEST PUSH1 0x0 DUP2 SWAP1 POP SWAP2 SWAP1 POP JUMP JUMPDEST PUSH2 0x8E6 DUP2 PUSH2 0x8D3 JUMP JUMPDEST DUP2 EQ PUSH2 0x8F1 JUMPI PUSH1 0x0 DUP1 REVERT JUMPDEST POP JUMP JUMPDEST PUSH1 0x0 DUP2 CALLDATALOAD SWAP1 POP PUSH2 0x903 DUP2 PUSH2 0x8DD JUMP JUMPDEST SWAP3 SWAP2 POP POP JUMP JUMPDEST PUSH1 0x0 PUSH1 0x20 DUP3 DUP5 SUB SLT ISZERO PUSH2 0x91F JUMPI PUSH2 0x91E PUSH2 0x8C9 JUMP JUMPDEST JUMPDEST PUSH1 0x0 PUSH2 0x92D DUP5 DUP3 DUP6 ADD PUSH2 0x8F4 JUMP JUMPDEST SWAP2 POP POP SWAP3 SWAP2 POP POP JUMP JUMPDEST PUSH1 0x0 PUSH20 0xFFFFFFFFFFFFFFFFFFFFFFFFFFFFFFFFFFFFFFFF DUP3 AND SWAP1 POP SWAP2 SWAP1 POP JUMP JUMPDEST PUSH1 0x0 PUSH2 0x961 DUP3 PUSH2 0x936 JUMP JUMPDEST SWAP1 POP SWAP2 SWAP1 POP JUMP JUMPDEST PUSH2 0x971 DUP2 PUSH2 0x956 JUMP JUMPDEST DUP2 EQ PUSH2 0x97C JUMPI PUSH1 0x0 DUP1 REVERT JUMPDEST POP JUMP JUMPDEST PUSH1 0x0 DUP2 CALLDATALOAD SWAP1 POP PUSH2 0x98E DUP2 PUSH2 0x968 JUMP JUMPDEST SWAP3 SWAP2 POP POP JUMP JUMPDEST PUSH1 0x0 PUSH1 0x20 DUP3 DUP5 SUB SLT ISZERO PUSH2 0x9AA JUMPI PUSH2 0x9A9 PUSH2 0x8C9 JUMP JUMPDEST JUMPDEST PUSH1 0x0 PUSH2 0x9B8 DUP5 DUP3 DUP6 ADD PUSH2 0x97F JUMP JUMPDEST SWAP2 POP POP SWAP3 SWAP2 POP POP JUMP JUMPDEST PUSH1 0x0 DUP2 ISZERO ISZERO SWAP1 POP SWAP2 SWAP1 POP JUMP JUMPDEST PUSH2 0x9D6 DUP2 PUSH2 0x9C1 JUMP JUMPDEST DUP3 MSTORE POP POP JUMP JUMPDEST PUSH1 0x0 PUSH1 0x20 DUP3 ADD SWAP1 POP PUSH2 0x9F1 PUSH1 0x0 DUP4 ADD DUP5 PUSH2 0x9CD JUMP JUMPDEST SWAP3 SWAP2 POP POP JUMP JUMPDEST PUSH2 0xA00 DUP2 PUSH2 0x8D3 JUMP JUMPDEST DUP3 MSTORE POP POP JUMP JUMPDEST PUSH1 0x0 PUSH1 0x20 DUP3 ADD SWAP1 POP PUSH2 0xA1B PUSH1 0x0 DUP4 ADD DUP5 PUSH2 0x9F7 JUMP JUMPDEST SWAP3 SWAP2 POP POP JUMP JUMPDEST PUSH2 0xA2A DUP2 PUSH2 0x956 JUMP JUMPDEST DUP3 MSTORE POP POP JUMP JUMPDEST PUSH1 0x0 PUSH1 0xA0 DUP3 ADD SWAP1 POP PUSH2 0xA45 PUSH1 0x0 DUP4 ADD DUP9 PUSH2 0x9F7 JUMP JUMPDEST PUSH2 0xA52 PUSH1 0x20 DUP4 ADD DUP8 PUSH2 0x9F7 JUMP JUMPDEST PUSH2 0xA5F PUSH1 0x40 DUP4 ADD DUP7 PUSH2 0x9F7 JUMP JUMPDEST PUSH2 0xA6C PUSH1 0x60 DUP4 ADD DUP6 PUSH2 0x9F7 JUMP JUMPDEST PUSH2 0xA79 PUSH1 0x80 DUP4 ADD DUP5 PUSH2 0xA21 JUMP JUMPDEST SWAP7 SWAP6 POP POP POP POP POP POP JUMP JUMPDEST PUSH1 0x0 PUSH1 0x20 DUP3 ADD SWAP1 POP PUSH2 0xA98 PUSH1 0x0 DUP4 ADD DUP5 PUSH2 0xA21 JUMP JUMPDEST SWAP3 SWAP2 POP POP JUMP JUMPDEST PUSH1 0x0 DUP2 MLOAD SWAP1 POP SWAP2 SWAP1 POP JUMP JUMPDEST PUSH1 0x0 DUP3 DUP3 MSTORE PUSH1 0x20 DUP3 ADD SWAP1 POP SWAP3 SWAP2 POP POP JUMP JUMPDEST PUSH1 0x0 JUMPDEST DUP4 DUP2 LT ISZERO PUSH2 0xAD8 JUMPI DUP1 DUP3 ADD MLOAD DUP2 DUP5 ADD MSTORE PUSH1 0x20 DUP2 ADD SWAP1 POP PUSH2 0xABD JUMP JUMPDEST DUP4 DUP2 GT ISZERO PUSH2 0xAE7 JUMPI PUSH1 0x0 DUP5 DUP5 ADD MSTORE JUMPDEST POP POP POP POP JUMP JUMPDEST PUSH1 0x0 PUSH1 0x1F NOT PUSH1 0x1F DUP4 ADD AND SWAP1 POP SWAP2 SWAP1 POP JUMP JUMPDEST PUSH1 0x0 PUSH2 0xB09 DUP3 PUSH2 0xA9E JUMP JUMPDEST PUSH2 0xB13 DUP2 DUP6 PUSH2 0xAA9 JUMP JUMPDEST SWAP4 POP PUSH2 0xB23 DUP2 DUP6 PUSH1 0x20 DUP7 ADD PUSH2 0xABA JUMP JUMPDEST PUSH2 0xB2C DUP2 PUSH2 0xAED JUMP JUMPDEST DUP5 ADD SWAP2 POP POP SWAP3 SWAP2 POP POP JUMP JUMPDEST PUSH1 0x0 PUSH2 0xB42 DUP3 PUSH2 0x936 JUMP JUMPDEST SWAP1 POP SWAP2 SWAP1 POP JUMP JUMPDEST PUSH2 0xB52 DUP2 PUSH2 0xB37 JUMP JUMPDEST DUP3 MSTORE POP POP JUMP JUMPDEST PUSH1 0x0 PUSH1 0xA0 DUP3 ADD SWAP1 POP DUP2 DUP2 SUB PUSH1 0x0 DUP4 ADD MSTORE PUSH2 0xB72 DUP2 DUP9 PUSH2 0xAFE JUMP JUMPDEST SWAP1 POP PUSH2 0xB81 PUSH1 0x20 DUP4 ADD DUP8 PUSH2 0x9F7 JUMP JUMPDEST PUSH2 0xB8E PUSH1 0x40 DUP4 ADD DUP7 PUSH2 0xB49 JUMP JUMPDEST PUSH2 0xB9B PUSH1 0x60 DUP4 ADD DUP6 PUSH2 0x9CD JUMP JUMPDEST PUSH2 0xBA8 PUSH1 0x80 DUP4 ADD DUP5 PUSH2 0x9F7 JUMP JUMPDEST SWAP7 SWAP6 POP POP POP POP POP POP JUMP JUMPDEST PUSH1 0x0 DUP1 REVERT JUMPDEST PUSH1 0x0 DUP1 REVERT JUMPDEST PUSH32 0x4E487B7100000000000000000000000000000000000000000000000000000000 PUSH1 0x0 MSTORE PUSH1 0x41 PUSH1 0x4 MSTORE PUSH1 0x24 PUSH1 0x0 REVERT JUMPDEST PUSH2 0xBF4 DUP3 PUSH2 0xAED JUMP JUMPDEST DUP2 ADD DUP2 DUP2 LT PUSH8 0xFFFFFFFFFFFFFFFF DUP3 GT OR ISZERO PUSH2 0xC13 JUMPI PUSH2 0xC12 PUSH2 0xBBC JUMP JUMPDEST JUMPDEST DUP1 PUSH1 0x40 MSTORE POP POP POP JUMP JUMPDEST PUSH1 0x0 PUSH2 0xC26 PUSH2 0x8BF JUMP JUMPDEST SWAP1 POP PUSH2 0xC32 DUP3 DUP3 PUSH2 0xBEB JUMP JUMPDEST SWAP2 SWAP1 POP JUMP JUMPDEST PUSH1 0x0 PUSH8 0xFFFFFFFFFFFFFFFF DUP3 GT ISZERO PUSH2 0xC52 JUMPI PUSH2 0xC51 PUSH2 0xBBC JUMP JUMPDEST JUMPDEST PUSH2 0xC5B DUP3 PUSH2 0xAED JUMP JUMPDEST SWAP1 POP PUSH1 0x20 DUP2 ADD SWAP1 POP SWAP2 SWAP1 POP JUMP JUMPDEST DUP3 DUP2 DUP4 CALLDATACOPY PUSH1 0x0 DUP4 DUP4 ADD MSTORE POP POP POP JUMP JUMPDEST PUSH1 0x0 PUSH2 0xC8A PUSH2 0xC85 DUP5 PUSH2 0xC37 JUMP JUMPDEST PUSH2 0xC1C JUMP JUMPDEST SWAP1 POP DUP3 DUP2 MSTORE PUSH1 0x20 DUP2 ADD DUP5 DUP5 DUP5 ADD GT ISZERO PUSH2 0xCA6 JUMPI PUSH2 0xCA5 PUSH2 0xBB7 JUMP JUMPDEST JUMPDEST PUSH2 0xCB1 DUP5 DUP3 DUP6 PUSH2 0xC68 JUMP JUMPDEST POP SWAP4 SWAP3 POP POP POP JUMP JUMPDEST PUSH1 0x0 DUP3 PUSH1 0x1F DUP4 ADD SLT PUSH2 0xCCE JUMPI PUSH2 0xCCD PUSH2 0xBB2 JUMP JUMPDEST JUMPDEST DUP2 CALLDATALOAD PUSH2 0xCDE DUP5 DUP3 PUSH1 0x20 DUP7 ADD PUSH2 0xC77 JUMP JUMPDEST SWAP2 POP POP SWAP3 SWAP2 POP POP JUMP JUMPDEST PUSH2 0xCF0 DUP2 PUSH2 0xB37 JUMP JUMPDEST DUP2 EQ PUSH2 0xCFB JUMPI PUSH1 0x0 DUP1 REVERT JUMPDEST POP JUMP JUMPDEST PUSH1 0x0 DUP2 CALLDATALOAD SWAP1 POP PUSH2 0xD0D DUP2 PUSH2 0xCE7 JUMP JUMPDEST SWAP3 SWAP2 POP POP JUMP JUMPDEST PUSH1 0x0 DUP1 PUSH1 0x0 PUSH1 0x60 DUP5 DUP7 SUB SLT ISZERO PUSH2 0xD2C JUMPI PUSH2 0xD2B PUSH2 0x8C9 JUMP JUMPDEST JUMPDEST PUSH1 0x0 DUP5 ADD CALLDATALOAD PUSH8 0xFFFFFFFFFFFFFFFF DUP2 GT ISZERO PUSH2 0xD4A JUMPI PUSH2 0xD49 PUSH2 0x8CE JUMP JUMPDEST JUMPDEST PUSH2 0xD56 DUP7 DUP3 DUP8 ADD PUSH2 0xCB9 JUMP JUMPDEST SWAP4 POP POP PUSH1 0x20 PUSH2 0xD67 DUP7 DUP3 DUP8 ADD PUSH2 0x8F4 JUMP JUMPDEST SWAP3 POP POP PUSH1 0x40 PUSH2 0xD78 DUP7 DUP3 DUP8 ADD PUSH2 0xCFE JUMP JUMPDEST SWAP2 POP POP SWAP3 POP SWAP3 POP SWAP3 JUMP JUMPDEST PUSH32 0x4E487B7100000000000000000000000000000000000000000000000000000000 PUSH1 0x0 MSTORE PUSH1 0x12 PUSH1 0x4 MSTORE PUSH1 0x24 PUSH1 0x0 REVERT JUMPDEST PUSH32 0x4E487B7100000000000000000000000000000000000000000000000000000000 PUSH1 0x0 MSTORE PUSH1 0x11 PUSH1 0x4 MSTORE PUSH1 0x24 PUSH1 0x0 REVERT JUMPDEST PUSH1 0x0 PUSH2 0xDEB DUP3 PUSH2 0x8D3 JUMP JUMPDEST SWAP2 POP PUSH2 0xDF6 DUP4 PUSH2 0x8D3 JUMP JUMPDEST SWAP3 POP DUP3 PUSH2 0xE06 JUMPI PUSH2 0xE05 PUSH2 0xD82 JUMP JUMPDEST JUMPDEST DUP3 DUP3 DIV SWAP1 POP SWAP3 SWAP2 POP POP JUMP JUMPDEST PUSH32 0x4E487B7100000000000000000000000000000000000000000000000000000000 PUSH1 0x0 MSTORE PUSH1 0x22 PUSH1 0x4 MSTORE PUSH1 0x24 PUSH1 0x0 REVERT JUMPDEST PUSH1 0x0 PUSH1 0x2 DUP3 DIV SWAP1 POP PUSH1 0x1 DUP3 AND DUP1 PUSH2 0xE58 JUMPI PUSH1 0x7F DUP3 AND SWAP2 POP JUMPDEST PUSH1 0x20 DUP3 LT DUP2 EQ ISZERO PUSH2 0xE6C JUMPI PUSH2 0xE6B PUSH2 0xE11 JUMP JUMPDEST JUMPDEST POP SWAP2 SWAP1 POP JUMP JUMPDEST PUSH1 0x0 PUSH2 0xE7D DUP3 PUSH2 0x8D3 JUMP JUMPDEST SWAP2 POP PUSH32 0xFFFFFFFFFFFFFFFFFFFFFFFFFFFFFFFFFFFFFFFFFFFFFFFFFFFFFFFFFFFFFFFF DUP3 EQ ISZERO PUSH2 0xEB0 JUMPI PUSH2 0xEAF PUSH2 0xDB1 JUMP JUMPDEST JUMPDEST PUSH1 0x1 DUP3 ADD SWAP1 POP SWAP2 SWAP1 POP JUMP INVALID LOG2 PUSH5 0x6970667358 0x22 SLT KECCAK256 DUP11 AND 0xA5 SWAP6 MSTORE8 0xD2 PUSH21 0x70284F113E6301493E0B6443BB846EFE94074EA82C JUMP SWAP12 REVERT 0xC7 PUSH5 0x736F6C6343 STOP ADDMOD MULMOD STOP CALLER LOG2 PUSH5 0x6970667358 0x22 SLT KECCAK256 0xBE 0xB1 0xF DUP11 PUSH1 0x4E 0xC6 0x49 0xCE DELEGATECALL PUSH6 0x218C75C24A9F 0xCD 0x2E PUSH29 0xCAA2567B87020E3ADF28E59964736F6C63430008090033000000000000 "},"gasEstimates":{"creation":{"codeDepositCost":"1078400","executionCost":"1120","totalCost":"1079520"},"external":{"createCampaign(uint256)":"infinite","deployedCampaigns(uint256)":"infinite","getDeployedCampaigns()":"infinite"}},"methodIdentifiers":{"createCampaign(uint256)":"a3303a75","deployedCampaigns(uint256)":"339d50a5","getDeployedCampaigns()":"4acb9d4f"}},"storageLayout":{"storage":[{"astId":5,"contract":"Campaign.sol:CampaignFactory","label":"deployedCampaigns","offset":0,"slot":"0","type":"t_array(t_contract(Campaign)292)dyn_storage"}],"types":{"t_array(t_contract(Campaign)292)dyn_storage":{"base":"t_contract(Campaign)292","encoding":"dynamic_array","label":"contract Campaign[]","numberOfBytes":"32"},"t_contract(Campaign)292":{"encoding":"inplace","label":"contract Campaign","numberOfBytes":"20"}}},"userdoc":{"kind":"user","methods":{},"version":1}}